:100000006F00905B1300000013000000130000005D
:100010001300000013000000130000001300000094
:100020001300000013000000130000001300000084
:08003000130000007300100032
:100038006FF09FFC000000006F00C04C6F00804D07
:1000480000000000000000000000000000000000A8
:100058000000000000000000000000000000000098
:100068006FF09FF9000000006FF01FF9000000001A
:100078006FF09FF86FF05FF86FF01FF86FF0DFF721
:100088006FF09FF76FF05FF76F0080156F008017B4
:100098006F00601B6F00801C6F00401D6FF0DFF564
:1000A8006FF09FF56FF05FF56F00A0416FF0DFF420
:1000B8006FF09FF46FF05FF46F00401E00000000C7
:1000C8000000000000000000000000006F00001B9E
:1000D8006F00C01D6F00C0206F0080236F00C02814
:1000E8006F0080316F00C0336F0060586FF0DFF031
:1000F8006FF09FF06FF05FF06FF01FF06FF0DFEFC1
:100108006FF09FEF6F00C0346F0080356F00603A6A
:100118006F00C0176FF05FEE6FF01FEE6FF0DFED4E
:1001280000000000000000000000000000000000C7
:080138000000000000000000BF
:100140003D432A876373C3029377F700BDEFADE5A4
:10015000937606FF3D8ABA960CC34CC30CC74CC7B6
:100160004107E36BD7FE11E28280B306C3408A06E3
:100170009702000096966780A6002307B700A306A3
:10018000B7002306B700A305B7002305B700A304F3
:10019000B7002304B700A303B7002303B700A302EB
:1001A000B7002302B700A301B7002301B700A300E3
:1001B000B7002300B700828093F5F50F9396850072
:1001C000D58D93960501D58D61B79396270097023B
:1001D000000096968682E78086FA9680C1171D8F6A
:1001E0003E96E374C3F8A5B7411122C60008054541
:1001F000EF10A0182A8785476315F7000545EF1013
:10020000201D01003244410173002030411122C6FB
:1002100000080945EF1060162A8785476314F70226
:1002200003A7818089476315F700EF20301701A8E5
:1002300003A7818085476314F700EF20F008094584
:10024000EF100019010032444101730020304111C8
:1002500022C600081145EF10A017010032444101E9
:1002600073002030411122C60008010032444101D0
:1002700073002030411122C60008010032444101C0
:1002800073002030411122C60008010032444101B0
:1002900073002030411122C60008010032444101A0
:1002A00073002030411122C6000801003244410190
:1002B00073002030411122C6000893050008B737AB
:1002C0000140138507C0EF10106FAA8789CB9305F3
:1002D0000008B7370140138507C0EF10D074010044
:1002E0003244410173002030411122C60008854587
:1002F000B7370140138507C0EF10F06BAA8781CB99
:100300008545B7370140138507C0EF10D071010054
:100310003244410173002030411122C60008930588
:100320000004B7370140138507C0EF10D068AA87D3
:1003300089CB93050004B7370140138507C0EF1040
:10034000906E93050002B7370140138507C0EF1088
:100350009066AA8789CB93050002B73701401385C1
:1003600007C0EF10506C010032444101730020308F
:10037000411122C600088945B7370140138507C0DF
:10038000EF107063AA8781CB8945B7370140138589
:1003900007C0EF1050699145B7370140138507C07A
:1003A000EF107061AA8781CB9145B7370140138563
:1003B00007C0EF105067A145B7370140138507C04C
:1003C000EF10705FAA8781CBA145B7370140138535
:1003D00007C0EF105065C145B7370140138507C00E
:1003E000EF10705DAA8781CBC145B73701401385F7
:1003F00007C0EF1050630100324441017300203008
:10040000411122C60008854537050040EF10B05A5B
:10041000AA8791C7854537050040EF10D0600100DD
:100420003244410173002030411122C60008854545
:10043000B707004013850740EF10F057AA8781CB1C
:100440008545B707004013850740EF10D05D0100D8
:100450003244410173002030411122C600080100DE
:100460003244410173002030411122C60008930537
:100470005052B747004013850740EF20601AAA8703
:1004800085CB93055052B747004013850740EF20B6
:10049000402903A7818089476315F700EF20006991
:1004A00001A803A7818085476314F700EF20402C43
:1004B00001003244410173002030411122C600087E
:1004C00001003244410173002030411122C600086E
:1004D0000965EF00504A2A8785476314F7020965CA
:1004E000EF00304F03A7818089476315F700EF20A5
:1004F000406E01A803A7818085476314F700EF20B1
:10050000006001003244410173002030411122C6D5
:10051000000801003244410173002030411122C61D
:10052000000801A0411106C622C400081305E0041A
:10053000EF207039AA873E85B24022444101828073
:10054000011122CE00102326A4FE83C7618293B737
:10055000170093F7F70F3E872383E182010072446F
:1005600005618280411106C622C400080945EF30AA
:10057000601FAA873E87239EE1800545EF30801EDD
:10058000AA873E87239DE1800545EF30C0200945BD
:10059000EF3060200100B2402244410182804111CD
:1005A00022C60008130780FD2388E1849387018514
:1005B000130700FBA380E7008397A181A187C207EF
:1005C000C18713F7F70F938701852381E70083978E
:1005D000A18113F7F70F93870185A381E700938724
:1005E0000185130710FB2382E7008397C181A18750
:1005F000C207C18713F7F70F93870185A382E7002E
:100600008397C18113F7F70F938701852383E70051
:1006100093870185130720FBA383E7009387818CD1
:1006200003C7A700938701852384E70003C7E181FF
:1006300093870185A384E70083C7618281EB938759
:100640000185130710FA2385E70039A093870185F8
:10065000130720FA2385E70003C79181938701855B
:10066000A385E7009387018539572386E7000100BA
:10067000324441018280411122C600088545B717E6
:10068000004013850780EF101033AA8785CF85457A
:10069000B717004013850780EF10F0388545130524
:1006A0000002EF20701A7D3DDD3D354693850185C2
:1006B0000145EF30403EEF30D04C8145130500023C
:1006C000EF209018010032444101730020300111E5
:1006D00022CE0010B70700200547238CE70A238F9E
:1006E000018093870186130780FBA388E702938725
:1006F00041892947A388E702130700032391E18278
:100700007DAB839721823E879387818CBA971307AD
:1007100010062380E700839721823E879387018616
:10072000BA97130780FB2380E700839721823E87D7
:1007300093874189BA9729472380E700A38F0180D7
:1007400023800182839721823E879387818CBA9789
:1007500083C707001397070141872392E18275A29F
:10076000839721823E8683974182BE86B707002009
:100770001307C00B3307E6029387C71DBA97B697D6
:1007800083C707003E8683972182BE858397418277
:10079000FD17370700209306C00BB386D502130759
:1007A000C71D3697BA9783C707003307F640F94746
:1007B00063D8E704839721823E8683974182BE8671
:1007C000B70700201307C00B3307E6029387C71D46
:1007D000BA97B69703C7070083972182BE85839790
:1007E0004182FD17B70600201306C00B3386C502F1
:1007F0009386C61DB296B69783C7070063E2E70AE1
:10080000839721823E8683974182FD173707002018
:100810009306C00BB306D6021307C71D3697BA97C7
:1008200083C70700BE8683972182BE858397418256
:100830003E86B70700201307C00B3387E502938776
:10084000C71DBA97B29783C707003387F640F947A9
:1008500063D8E706839721823E8683974182BE86CE
:10086000B70700201307C00B3307E6029387C71DA5
:10087000BA97B69703C7070083972182BE858397EF
:100880004182FD17B70600201306C00B3386C50250
:100890009386C61DB296B69783C707006372F702A8
:1008A0000397418283972182BE861377F70F938740
:1008B0000186B6972380E7000547A38FE180A1A8B2
:1008C000839721823E8683974182BE86B7070020A8
:1008D0001307C00B3307E6029387C71DBA97B69775
:1008E00003C707009307300663E5E7000547A38FBA
:1008F000E18083974182C207C1838507C207C18314
:100900001397070141872392E1820397418293075E
:10091000A00BE3D7E7E4839721823E879387818CFE
:10092000BA9783C707001397070141872392E18293
:1009300075A2839721823E8683974182BE86B70740
:1009400000201307C00B3307E6029387C71DBA9731
:10095000B69783C707003E8683972182BE8583971B
:1009600041828507370700209306C00BB386D50266
:100970001307C71D3697BA9783C707003307F6409A
:10098000F94763D8E704839721823E8683974182A3
:10099000BE86B70700201307C00B3307E602938714
:1009A000C71DBA97B69703C7070083972182BE85F4
:1009B000839741828507B70600201306C00B338654
:1009C000C5029386C61DB296B69783C7070063E239
:1009D000E70A839721823E868397418285073707FE
:1009E00000209306C00BB306D6021307C71D369727
:1009F000BA9783C70700BE8683972182BE858397F7
:100A000041823E86B70700201307C00B3387E502FB
:100A10009387C71DBA97B29783C707003387F640FD
:100A2000F94763D8E706839721823E868397418200
:100A3000BE86B70700201307C00B3307E602938773
:100A4000C71DBA97B69703C7070083972182BE8553
:100A5000839741828507B70600201306C00B3386B3
:100A6000C5029386C61DB296B69783C70700637208
:100A7000F7020397418283972182BE861377F70F8F
:100A800093874189B6972380E70005472380E18259
:100A900091A8839721823E8683974182BE86B707BD
:100AA00000201307C00B3307E6029387C71DBA97D0
:100AB000B69703C707009307300663E5E7000547CD
:100AC0002380E18283974182C207C183FD17C20759
:100AD000C1831397070141872392E1828397418263
:100AE000E3D907E483C7F18189C783C70182639390
:100AF000070E03972182F9476312F702B707002018
:100B000083C7870B81EF83C7F18189EB83C701829C
:100B100091E74557238FE180A380018203972182CB
:100B20009307300263DCE70283C7F18199EB839777
:100B300021823E8793870186BA97130780FB238023
:100B4000E70083C70182A9EF839721823E879387BD
:100B50004189BA9729472380E70099A0839721828A
:100B60001387170083972182BE8693870186BA97E1
:100B700003C7070093870186B6972380E700839712
:100B800021821387170083972182BE86938741892C
:100B9000BA9703C7070093874189B6972380E70078
:100BA00083C7F1818DEF83C7018295EB8397218203
:100BB0003E8793870186BA97130780FB2380E7005F
:100BC000839721823E8793874189BA97294723805B
:100BD000E70031A0B7070020238C070A11A001000D
:100BE000839721823E8793870186BA9783C7070040
:100BF0003E8783972182BE8693874189B69783C7B4
:100C00000700BA9713D7F701BA9785873E8783976E
:100C10002182BE861377F70F9387818CB697238046
:100C2000E700839721823E8793870186BA9703C79F
:100C300007009307A00663FEE700839721823E87A3
:100C400093874189BA9703C707009307700563FC30
:100C5000E700839721823E879387818CBA97130799
:100C600010062380E70003972182F947631DF702EE
:100C7000839721823E8793870186BA9703C707002F
:100C80009307A00663FEE700839721823E87938740
:100C90004189BA9703C707009307700563F5E7001A
:100CA0005157238FE18083972182C207C183FD17AB
:100CB000C207C1831397070141872391E18283977C
:100CC0002182E3D007A4232604FE9387818C83C767
:100CD00017003E879387818C83C707031D8F935727
:100CE000F7413D8FB307F7402326F4FE0327C4FEE8
:100CF000954763D8E7000547238CE180A38C0180EA
:100D000031A0238C01800547A38CE180010072444F
:100D100005618280411106C622C40008EF20E05719
:100D2000EF20D060EF10905285460146B7170700BC
:100D3000938507800145EF207040930600310146FE
:100D4000854513050002EF20E01595450D45EF2080
:100D5000005C93068004054681451305E004EF20FE
:100D600060140146B7070000938547521385C18F71
:100D7000EF302004B707000013860754854513851C
:100D8000C18FEF30000D154691450545EF20D00786
:100D90002D46A9450945EF2030071385C18FEF3057
:100DA00040590145EF20E05383C7D182F5DFA38688
:100DB0000182EFF0DF91CDBF97010020938101B058
:100DC0001741002013010124175500001305C59F8A
:100DD00097F5FF1F938505231386818163FAC5006C
:100DE0008322050023A0550011059105E3EAC5FE05
:100DF00013858181972500209385058B6377B50046
:100E0000232005001105E36DB5FE9302800873A051
:100E1000023097F2FFFF9382622293E212007390F6
:100E20005230EF203071970200009382E2EE73900F
:100E3000123473002030011122CE00102326A4FEAC
:100E40008327C4FE9843C167F9177D8F8327C4FEAB
:100E500098C38327C4FE23A007008327C4FE23A2D0
:100E600007008327C4FE23A407008327C4FE23A60C
:100E700007000327C4FEB7070240A107631BF70062
:100E8000B7070240D843B70702401367F700D8C33B
:100E900075A20327C4FEB7070240F107631BF700E2
:100EA000B7070240D843B70702401367070FD8C3FC
:100EB00071A20327C4FEB707024093870703631D8F
:100EC000F700B7070240D443B7070240056713078E
:100ED00007F0558FD8C39DA20327C4FEB707024071
:100EE00093874704631BF700B7070240D443B70753
:100EF00002403D67558FD8C391A20327C4FEB707B0
:100F0000024093878705631CF700B7070240D4436C
:100F1000B707024037070F00558FD8C305A2032734
:100F2000C4FEB70702409387C706631CF700B707E4
:100F30000240D443B70702403707F000558FD8C3AB
:100F4000F5A80327C4FEB707024093870708631C70
:100F5000F700B7070240D443B70702403707000F36
:100F6000558FD8C3E1A80327C4FEB7070240938773
:100F70008740631FF700B707024093870740D843B5
:100F8000B7070240938707401367F700D8C37DA0D7
:100F90000327C4FEB70702409387C741631FF700CA
:100FA000B707024093870740D843B70702409387AB
:100FB00007401367070FD8C351A00327C4FEB70724
:100FC0000240938707436311F702B70702409387F4
:100FD0000740D443B70702409387074005671307CC
:100FE00007F0558FD8C399A80327C4FEB70702405E
:100FF00093874744631FF700B70702409387074072
:10100000D443B7070240938707403D67558FD8C345
:1010100035A00327C4FEB707024093878745631FA7
:10102000F700B707024093870740D443B707024051
:101030009387074037070F00558FD8C301007244CC
:1010400005618280797122D60018232EA4FC232CFE
:10105000B4FC232604FE8327C4FD9C432326F4FE10
:101060000327C4FEE177BD07F98F2326F4FE83270B
:1010700084FD9847832784FD9C535D8F832784FDDF
:101080009C4B5D8F832784FDDC4B5D8F832784FD24
:101090009C4F5D8F832784FDDC4F5D8F832784FD0C
:1010A000DC535D8F832784FD9C57D98F0327C4FEB3
:1010B000D98F2326F4FE8327C4FD0327C4FE98C3DB
:1010C000832784FDD8478327C4FDD8C3832784FDA5
:1010D00098438327C4FD98C7832784FDD84383277B
:1010E000C4FDD8C70100325445618280011122CE6F
:1010F00000102326A4FE2324B4FE832784FE91CB74
:101100008327C4FE9C4313E717008327C4FE98C3BC
:1011100011A88327C4FE9843C167F9177D8F8327E1
:10112000C4FE98C30100724405618280011122CE81
:1011300000102326A4FE2324B4FE2322C4FE83270A
:1011400044FE99CB8327C4FE9843832784FE5D8F9A
:101150008327C4FE98C321A88327C4FE984383270E
:1011600084FE93C7F7FF7D8F8327C4FE98C30100D9
:10117000724405618280797122D60018232EA4FC66
:10118000232604FE232404FE0327C4FDB707001012
:10119000F98F89CBB7070240938707409C432324EC
:1011A000F4FE31A0B70702409C432324F4FE03273A
:1011B00084FE8327C4FDF98F89C785472326F4FE63
:1011C00019A0232604FE8327C4FE3E8532544561C0
:1011D0008280011122CE00102326A4FE0327C4FE24
:1011E000B7070010F98F89CBB707024093870740F4
:1011F0000327C4FED8C331A0B70702400327C4FEAB
:10120000D8C30100724405618280797122D600182A
:10121000232EA4FC232604FEB70701409387074032
:101220002326F4FE8327C4FDDC4763800712B7073B
:1012300001409387074094438327C4FD9C4313C711
:10124000F7FFB707014093870740758F98C3B7072B
:10125000014093870740D4438327C4FD9C4313C7B1
:10126000F7FFB707014093870740758FD8C38327DF
:10127000C4FDDC430327C4FEBA972326F4FE83276C
:10128000C4FE94438327C4FD98438327C4FE558F2F
:1012900098C3B70701409387074094478327C4FD4D
:1012A0009C4313C7F7FFB707014093870740758F2B
:1012B00098C7B707014093870740D4478327C4FDE9
:1012C0009C4313C7F7FFB707014093870740758F0B
:1012D000D8C78327C4FD9847C147631FF702B707E4
:1012E00001409387074094478327C4FD9843B7077D
:1012F000014093870740558F98C7B70701409387F0
:101300000740D4478327C4FD9843B707014093871C
:101310000740558FD8C7B1A8B7070140938707404A
:101320002326F4FE8327C4FD9C470327C4FEBA97F7
:101330002326F4FE8327C4FE94438327C4FD9843E9
:101340008327C4FE558F98C32DA08327C4FDDC439B
:101350000327C4FEBA972326F4FE8327C4FE9443D2
:101360008327C4FD9C4313C7F7FF8327C4FE758FF3
:1013700098C30100325445618280797122D60018E9
:10138000232EA4FC232604FE232404FEB7070140D9
:10139000938707409C430327C4FDF98F2324F4FE61
:1013A000B707014093870740D84B8327C4FDF98FC7
:1013B00081CB832784FE89C785472326F4FE19A0A5
:1013C000232604FE8327C4FE3E8532544561828075
:1013D000011122CE00102326A4FEB70701409387F7
:1013E00007400327C4FED8CB010072440561828008
:1013F000397122DE80002326A4FC2324B4FC23269A
:1014000004FE232004FE232404FE232E04FC2322B6
:1014100004FE232C04FC832784FC9C47BD8B2326DD
:10142000F4FE832784FC9C47C18B89CB832784FCF3
:10143000DC430327C4FED98F2326F4FE832784FCD4
:1014400083D7070093F7F70FF1CF8327C4FC9C43A2
:101450002322F4FE232404FE65A8832784FE054787
:10146000B317F700232EF4FC832784FC83D70700EF
:101470003E878327C4FDF98F2320F4FE032704FE53
:101480008327C4FD6311F708832784FE8A07232E70
:10149000F4FC8327C4FD3D47B317F700232CF4FC6D
:1014A000832784FD93C7F7FF032744FEF98F232288
:1014B000F4FE8327C4FD0327C4FEB317F7000327F8
:1014C00044FED98F2322F4FE832784FC9847930798
:1014D0008002631BF700832784FE05473317F7005C
:1014E0008327C4FCD8CB05A0832784FC98479307A7
:1014F0008004631AF700832784FE05473317F7003B
:101500008327C4FC98CB832784FE85072324F4FE1D
:10151000032784FE9D47E3F2E7F48327C4FC0327F7
:1015200044FE98C3832784FC03D707009307F00F7A
:1015300063F1E70E8327C4FCDC432322F4FE23245B
:1015400004FE75A8832784FEA1070547B317F7009B
:10155000232EF4FC832784FC83D707003E87832750
:10156000C4FDF98F2320F4FE032704FE8327C4FD66
:101570006312F708832784FE8A07232EF4FC83274F
:10158000C4FD3D47B317F700232CF4FC832784FDEB
:1015900093C7F7FF032744FEF98F2322F4FE832726
:1015A000C4FD0327C4FEB317F700032744FED98FF9
:1015B0002322F4FE832784FC984793078002631B51
:1015C000F700832784FEA10705473317F700832719
:1015D000C4FCD8CB832784FC984793078004631B03
:1015E000F700832784FEA10705473317F7008327F9
:1015F000C4FC98CB832784FE85072324F4FE0327AD
:1016000084FE9D47E3F0E7F48327C4FC032744FEF0
:10161000D8C30100725421618280011122CE0010D2
:101620002326A4FEAE872322C4FE2315F4FE8327BF
:1016300044FE99C70357A4FE8327C4FE98CB31A06C
:101640000357A4FE8327C4FED8CB01007244056172
:101650008280797122D60018232EA4FC232CB4FC9E
:10166000232404FE232204FE232604FE232004FE5A
:101670008327C4FD63D80700B7070140DC4F23264A
:10168000F4FE31A0B7070140DC432326F4FE832794
:10169000C4FDC183BD8B2320F4FE0327C4FDC167B5
:1016A000FD17F98F2324F4FE0327C4FDB70730008C
:1016B0007D8FB70730006315F7020327C4FEB70715
:1016C00000F1FD17F98F2326F4FEB7070140D4433C
:1016D000B7070140370700F17D17758FD8C3ADA05C
:1016E0000327C4FDB7071000F98F8DCB832704FEB5
:1016F0000D47B317F7002322F4FE832744FE93C758
:10170000F7FF0327C4FEF98F2326F4FE0327C4FE48
:10171000B707000FD98F2326F4FE3DA08327C4FD11
:10172000D5839207032784FEB317F70093C7F7FF0B
:101730000327C4FEF98F2326F4FE0327C4FEB70750
:10174000000FD98F2326F4FE832784FD91CF8327B2
:10175000C4FDD5839207032784FEB317F700032740
:10176000C4FED98F2326F4FE8327C4FD63D8070067
:10177000B70701400327C4FED8CF31A0B707014007
:101780000327C4FED8C301003254456182807971B9
:1017900022D60018AA872E87A30FF4FCBA87230F3E
:1017A000F4FC232604FE8347E4FD8D8B8A073D4726
:1017B000B317F7002326F4FE370701408347E4FD03
:1017C000898393F7F70F8A07BA9798478327C4FE50
:1017D00093C7F7FFB70601400346E4FD098213767D
:1017E000F60F7D8F93172600B69798C737070140ED
:1017F0008347E4FD898393F7F70F8A07BA979847E1
:101800008346F4FD8347E4FD8D8B8A07B397F6008A
:10181000B70601400346E4FD09821376F60F5D8F9B
:1018200093172600B69798C701003254456182800D
:10183000011122CE00102326A4FE8327C4FEFD8BB7
:101840000547B316F70037E700E08327C4FE95830A
:10185000938707048A07BA9794C30100724405610D
:101860008280011122CE00102326A4FE8327C4FE0D
:10187000FD8B0547B316F70037E700E08327C4FE6A
:101880009583938707068A07BA9794C30100724429
:1018900005618280011122CE00102326A4FEAE87AE
:1018A000A305F4FE37E700E08327C4FEBA97034799
:1018B000B4FE2380E740010072440561828001117B
:1018C00006CE22CC00102326A4FEB7E700E0BC47DA
:1018D000898B8DC38327C4FE83C707003E87832778
:1018E000C4FE83C72700920793F7F70FBE853A859A
:1018F000553795A0B7E700E0BC47898BA9EF832750
:10190000C4FE03C7170085476318F7028327C4FE88
:1019100083C707003E878327C4FE83C7270092073B
:10192000E207E18793E707F8E207E18793F7F70F0C
:10193000BE853A85853705A08327C4FE83C7070087
:101940003E878327C4FE83C72700920793F7F70FCC
:10195000BE853A8581378327C4FEDC4381CB83274C
:10196000C4FE83C707003E85E13539A08327C4FE46
:1019700083C707003E85F5350100F24062440561EA
:101980008280797122D60018232EA4FC232604FE1F
:10199000232404FE232204FE232004FEB717024062
:1019A000DC43B18B2326F4FE0327C4FE9147630278
:1019B000F7020327C4FEA1476305F7028327C4FE8D
:1019C000C5E78327C4FD37177A001307072098C39C
:1019D00065A08327C4FD37177A001307072098C333
:1019E00061A8B7170240D843B7073C00F98F2324FA
:1019F000F4FEB7170240D843C167F98F2322F4FEE3
:101A0000832784FEC98389072324F4FE832744FEA9
:101A100089EF032784FEB7173D00938707903307AC
:101A2000F7028327C4FD98C381A8B7170240D843A3
:101A3000B7070200F98F89CF032784FEB7173D004F
:101A4000938707903307F7028327C4FD98C32DA01F
:101A5000032784FEB7177A00938707203307F7021E
:101A60008327C4FD98C309A88327C4FD37177A00CC
:101A70001307072098C30100B7170240DC4393F710
:101A8000070F2326F4FE8327C4FE91832326F4FE4A
:101A9000B7070020138707008327C4FEBA9783C7C0
:101AA000070093F7F70F2320F4FE8327C4FD984324
:101AB000832704FE3357F7008327C4FDD8C3B71725
:101AC0000240DC4393F707702326F4FE8327C4FE0D
:101AD000A1832326F4FEB70700201387070083277E
:101AE000C4FEBA9783C7070093F7F70F2320F4FECD
:101AF0008327C4FDD843832704FE3357F700832789
:101B0000C4FD98C7B7170240D843916793870780F1
:101B1000F98F2326F4FE8327C4FEAD832326F4FE2B
:101B2000B7070020138707008327C4FEBA9783C72F
:101B3000070093F7F70F2320F4FE8327C4FDD84353
:101B4000832704FE3357F7008327C4FDD8C7B71790
:101B50000240D843B167F98F2326F4FE8327C4FEE1
:101B6000B9832326F4FEB70700201387C70B83270A
:101B7000C4FEBA9783C7070093F7F70F2320F4FE3C
:101B80008327C4FDD847832704FE3357F7028327F2
:101B9000C4FD98CB0100325445618280011122CEF0
:101BA00000102326A4FE2324B4FE832784FE99CBB1
:101BB000B7170240D44BB71702400327C4FE558F16
:101BC000D8CB21A8B7170240D44B8327C4FE13C734
:101BD000F7FFB7170240758FD8CB0100724405613B
:101BE0008280011122CE00102326A4FE2324B4FEFD
:101BF000832784FE99CBB7170240944FB717024052
:101C00000327C4FE558F98CF21A8B7170240944FE1
:101C10008327C4FE13C7F7FFB7170240758F98CF0D
:101C20000100724405618280011122CE001023263A
:101C3000A4FE2324B4FE832784FE99CBB717024069
:101C4000D44FB71702400327C4FE558FD8CF21A821
:101C5000B7170240D44F8327C4FE13C7F7FFB71747
:101C60000240758FD8CF010072440561828079717E
:101C700022D60018232EA4FC232CB4FC231704FE28
:101C80008327C4FD83D707002317F4FE0327C4FD71
:101C9000B7370140938707C06308F7020327C4FDE5
:101CA000B70700406302F7020327C4FDB7070040EF
:101CB00093870740630AF7000327C4FDB717004066
:101CC000938707806311F7028357E4FE93F7F7F8D1
:101CD0002317F4FE832784FD03D727008357E4FEF0
:101CE000D98F2317F4FE8357E4FE93F7F7CF23171A
:101CF000F4FE832784FD03D767008357E4FED98F62
:101D00002317F4FE8327C4FD0357E4FE2390E70066
:101D1000832784FD03D747008327C4FD2396E7026A
:101D2000832784FD03D707008327C4FD2394E7029C
:101D30000327C4FDB7370140938707C0631DF70031
:101D4000832784FD83C78700139707014183832777
:101D5000C4FD2398E7028327C4FD0547239AE700C3
:101D60000100325445618280011122CE00102326E9
:101D7000A4FE8327C4FE7D572392E7008327C4FE79
:101D8000239007008327C4FE239307008327C4FE04
:101D9000239107008327C4FE2384070001007244B7
:101DA00005618280011122CE00102326A4FE232487
:101DB000B4FE832784FE8DC38327C4FE83D7070028
:101DC000C207C18393E71700139707014183832755
:101DD000C4FE2390E70039A88327C4FE83D70700F9
:101DE000C207C183F99B1397070141838327C4FE70
:101DF0002390E7000100724405618280011122CE28
:101E000000102326A4FEAE872322C4FE2315F4FE71
:101E1000832744FE9DC38327C4FE83D7C70013973F
:101E2000070141838357A4FED98F1397070141838C
:101E30008327C4FE2396E70035A08327C4FE83D7FB
:101E4000C7001397070141838357A4FE93C7F7FF89
:101E5000C207C183F98F1397070141838327C4FE0B
:101E60002396E7000100724405618280011122CEB1
:101E700000102326A4FEAE872322C4FE2315F4FE01
:101E8000832744FE9DC38327C4FE83D7C7001397CF
:101E9000070141838357A4FED98F1397070141831C
:101EA0008327C4FE2396E70035A08327C4FE83D78B
:101EB000C7001397070141838357A4FE93C7F7FF19
:101EC000C207C183F98F1397070141838327C4FE9B
:101ED0002396E7000100724405618280797106D67D
:101EE00022D40018232EA4FCAE873687231DF4FCD1
:101EF000B287231CF4FCBA87231BF4FC231704FECF
:101F0000835664FD035784FD8357A4FD3A86BE853E
:101F10000325C4FD89288327C4FD83D787002317A1
:101F2000F4FE8357E4FEE19B2317F4FE8357E4FE9F
:101F300093E777002317F4FE8357E4FE93F7F7F84F
:101F40002317F4FE8357E4FE93E707072317F4FEF5
:101F50008327C4FD0357E4FE2394E7000100B25039
:101F6000225445618280797122D60018232EA4FC68
:101F7000AE873687231DF4FCB287231CF4FCBA8796
:101F8000231BF4FC231704FE8327C4FD83D787009B
:101F90002317F4FE8357E4FE93F7F70F2317F4FE9D
:101FA000835764FDA207139707014183835784FD7C
:101FB000D98F1397070141838357A4FDD98F1397B6
:101FC000070141838357E4FED98F2317F4FE83274B
:101FD000C4FD0357E4FE2394E70001003254456139
:101FE0008280797122D60018232EA4FCAE87231D8F
:101FF000F4FC231704FE8327C4FD83D7870023172F
:10200000F4FE8357E4FE93F7F7F82317F4FE035723
:10201000E4FE8357A4FDD98F2317F4FE8327C4FD64
:102020000357E4FE2394E7000100325445618280A7
:10203000797122D60018232EA4FCAE873687231D83
:10204000F4FCB287231CF4FCBA87231BF4FC23178F
:1020500004FE231604FE231504FE8327C4FD83D744
:1020600087002317F4FE8327C4FD83D78701231637
:10207000F4FE8327C4FD83D707022315F4FE83579C
:10208000E4FEE19B2317F4FE0357E4FE8357A4FD0F
:10209000D98F2317F4FE8357C4FE93F7C7CF2316B7
:1020A000F4FE8357C4FE93E717102316F4FE8357FC
:1020B000A4FE93F7D7FD2315F4FE835764FD920722
:1020C000139707014183835784FDD98F1397070125
:1020D00041838357A4FED98F2315F4FE8327C4FDC3
:1020E0000357E4FE2394E7008327C4FD0357C4FE8F
:1020F000239CE7008327C4FD0357A4FE2390E70237
:102100000100325445618280011122CE0010232645
:10211000A4FEAE872315F4FE8327C4FE83D7870071
:10212000C207C183E19B1397070141838327C4FE44
:102130002394E7008327C4FE83D787001397070102
:1021400041838357A4FED98F1397070141838327C7
:10215000C4FE2394E70001007244056182800111EE
:1021600022CE00102326A4FEAE872315F4FE83277B
:10217000C4FE83D78700C207C18393F7F7F713978D
:10218000070141838327C4FE2394E7008327C4FE0D
:1021900083D787001397070141838357A4FED98F04
:1021A0001397070141838327C4FE2394E7000100AE
:1021B000724405618280797122D60018232EA4FC16
:1021C000AE87231DF4FC232604FE231504FE2314EE
:1021D00004FE8327C4FD83D70701139707014183BA
:1021E0008357A4FDF98F2315F4FE8327C4FD83D7FD
:1021F000C7001397070141838357A4FDF98F231468
:10220000F4FE8357A4FE81CB835784FE89C785479C
:102210002326F4FE19A0232604FE8327C4FE3E8550
:10222000325445618280011122CE00102326A4FE83
:10223000AE872315F4FE8357A4FE93C7F7FF1397C9
:10224000070141838327C4FE2398E70001007244FD
:10225000056182805D7186C6A2C48008232EA4FA1F
:10226000232CB4FA232604FE232404FE232204FE96
:10227000232004FE232E04FC8327C4FB232EF4FC1E
:102280008327C4FB83D70701C207C1832326F4FE3B
:102290000327C4FEB567FD17F98F2326F4FE8327B5
:1022A00084FB83D767003E878327C4FED98F23260C
:1022B000F4FE8327C4FE1397070141838327C4FBE1
:1022C0002398E7008327C4FB83D7C700C207C183D5
:1022D0002326F4FE0327C4FEBD679387379FF98F3B
:1022E0002326F4FE832784FB03D74700832784FB40
:1022F00083D78700D98F139707014183832784FBF6
:1023000083D7A700D98FC207C1833E878327C4FE26
:10231000D98F2326F4FE8327C4FE13970701418338
:102320008327C4FB2396E7008327C4FB83D7470199
:10233000C207C1832326F4FE0327C4FEC167938727
:10234000F7CFF98F2326F4FE832784FB83D7C700BA
:102350003E878327C4FED98F2326F4FE8327C4FE3D
:102360001397070141838327C4FB239AE700930750
:1023700084FC3E85EFF0EFE00327C4FDB747014042
:10238000938707806317F700832744FD2324F4FE17
:1023900029A0832704FD2324F4FE8327C4FB83D7CD
:1023A000C700C207C183C207C18763D207020327E0
:1023B00084FEBA878607BA978E073E97832784FBE9
:1023C0009C438607B357F7022322F4FE05A0032798
:1023D00084FEBA878607BA978E073E97832784FBC9
:1023E0009C438A07B357F7022322F4FE032744FED7
:1023F00093074006B357F70292072326F4FE83277C
:10240000C4FE13D7470093074006B307F70203271C
:1024100044FEB307F7402320F4FE8327C4FB83D791
:10242000C700C207C183C207C18763D207028327DF
:1024300004FE8E071387270393074006B357F7025E
:102440009D8B0327C4FED98F2326F4FE05A0832786
:1024500004FE92071387270393074006B357F7023A
:10246000BD8B0327C4FED98F2326F4FE8327C4FE29
:102470001397070141838327C4FB2394E7000100DE
:10248000B640264461618280011122CE00102326CD
:10249000A4FE2324B4FE832784FE95C38327C4FEB1
:1024A00083D7C7001397070141838967D98F139793
:1024B000070141838327C4FE2396E70015A08327E5
:1024C000C4FE83D7C700139707014183F977FD172F
:1024D000F98F1397070141838327C4FE2396E700F2
:1024E0000100724405618280797122D60018232E82
:1024F000A4FCAE87232AC4FC231DF4FC232404FE81
:10250000232204FE232004FE232604FE8327C4FD89
:102510002326F4FE8357A4FD93F7F70F958393F7D3
:10252000F70F2324F4FE8357A4FDFD8B2322F4FE32
:10253000832744FE0547B317F7002320F4FE032743
:1025400084FE85476318F7008327C4FEB10723265E
:10255000F4FE0DA0032784FE89476318F700832744
:10256000C4FEC1072326F4FE31A08327C4FED10791
:102570002326F4FE832744FD99CB8327C4FE94438E
:102580008327C4FE032704FE558F98C321A8832701
:10259000C4FE9443832704FE13C7F7FF8327C4FEBA
:1025A000758F98C30100325445618280011122CE9B
:1025B00000102326A4FEAE872315F4FE8357A4FE45
:1025C00093F7F71F1397070141838327C4FE2392D4
:1025D000E7000100724405618280797122D60018FB
:1025E000232EA4FCAE87231DF4FC232604FE8327A0
:1025F000C4FD83D707001397070141838357A4FDC8
:10260000F98FC207C18389C785472326F4FE19A025
:10261000232604FE8327C4FE3E8532544561828012
:10262000797122D60018232EA4FCAE87231DF4FC5A
:10263000232204FE232604FE232004FE232404FE7A
:102640008357A4FD93F7F70F958393F7F70F232094
:10265000F4FE8357A4FDFD8B2326F4FE8327C4FEDE
:102660000547B317F7002326F4FE032704FE85472A
:10267000631FF7008327C4FD83D7C700C207C18348
:102680003E878327C4FEF98F2326F4FE3DA8032747
:1026900004FE8947631FF7008327C4FD83D7070122
:1026A000C207C1833E878327C4FEF98F2326F4FE29
:1026B00029A88327C4FD83D74701C207C1833E876A
:1026C0008327C4FEF98F2326F4FE8357A4FDA1833C
:1026D000C207C1832322F4FE832744FE0547B317B4
:1026E000F7002322F4FE8327C4FD83D70700C20727
:1026F000C1833E87832744FEF98F2322F4FE83277C
:10270000C4FE81CB832744FE89C785472324F4FE7A
:1027100019A0232404FE832784FE3E85325445619C
:102720008280797122D60018232EA4FCAE87231D47
:10273000F4FC231704FE231604FE8357A4FDA18393
:102740002317F4FE8357E4FE0547B317F70023165B
:10275000F4FE8357C4FE93C7F7FF13970701418325
:102760008327C4FD2390E700010032544561828035
:10277000411122C6000895679387076CDC4383D715
:10278000470013970701418383C7B182BE86137741
:10279000F70F93878182B6972380E70083C7B182C2
:1027A000850713F7F70FA385E18203C7B182854739
:1027B000631AF70003C781829307500A6304F70086
:1027C000A385018203C7B1828D476317F700A385F4
:1027D000018205472386E182010032444101828063
:1027E000797106D622D44AD24ED00018232EA4FCEA
:1027F000232CB4FC23860182231704FE69A09307CF
:1028000050FA2304F4FE8357E4FE8A07032784FD6D
:10281000BA978397070093F7F70FA304F4FE835743
:10282000E4FE8A07032784FDBA97839727002316BF
:10283000F4FE8357C4FEA183C207C18393F7F70F49
:102840002305F4FE8357C4FE93F7F70FA305F4FEA8
:10285000930784FE1146BE850325C4FDEF10A02317
:1028600003A781838967938707F4B357F702860725
:102870003E8981494A85CE85EF0050748357E4FE36
:1028800085072317F4FE0357E4FEA147E3F9E7F6B3
:10289000010083C7C18293F7F70FE5DF238601822A
:1028A00001009387818203C717009307F00FE31A93
:1028B000F7FE9387818203C727009307F00FE31287
:1028C000F7FE0100B25022541259825945618280AC
:1028D000797106D622D40018232EA4FC232CB4FC34
:1028E000231704FE45A0930750FA2304F4FEC557AE
:1028F000A304F4FE8357E4FE8A07032784FDBA97F6
:10290000839707002316F4FE8357C4FEA183C207F2
:10291000C18393F7F70F2305F4FE8357C4FE93F7A3
:10292000F70FA305F4FE930784FE1146BE85032529
:10293000C4FDEF104016010083C7C18293F7F70F63
:10294000E5DF238601829387818283C71700A20770
:1029500093960701C1869387818283C727001397C7
:10296000070141878357E4FE8A07032684FDB29757
:10297000558F420741872391E7008357E4FE85077F
:102980002317F4FE0357E4FE9D47E3FEE7F401003E
:10299000B250225445618280411106C622C400080B
:1029A00013068004B1450545EF0040778546014692
:1029B00085455D45EF00807E0100B2402244410123
:1029C0008280411106C622C40008B1450145712626
:1029D0000100B240224441018280011106CE22CC86
:1029E0000010930700042307F4FE9D47A307F4FE9D
:1029F00005A00347F4FE8347E4FEBA9791460146DB
:102A000081453E8545218347F4FEFD17A307F4FE6B
:102A10008347F4FEF9FF83A7C1833E8789679386C6
:102A2000874B3A86B717014093858700B707024066
:102A300013854704F1228546014681457945EF001B
:102A4000E0750100F240624405618280411106C6D2
:102A500022C40008054723A4E1803707002013079C
:102A6000C71D23AEE182C546414689679385075855
:102A70000545EF00B06C85450545EF102006014582
:102A8000EF00300623860182B707002093854703B5
:102A900005453D3D23860182B70700209385070148
:102AA00005453D3B23860182B707002093854703F8
:102AB0000545393DEF00607E0D372137F13D0100BE
:102AC000B240224441018280411122C60008B7076A
:102AD00002409387470409671307874BD8C3B7079A
:102AE0000240938747049843B707024093874704FF
:102AF0001367170098C301003244410182804111DD
:102B000022C600080547A386E182B70702409387E3
:102B100047049443B70702409387470441677917F6
:102B2000758F98C30100324441018280411122C651
:102B3000000895679387076CDC4383D7470013979A
:102B40000701418383C73183BE861377F70F9387CD
:102B50000183B6972380E70083C73183850713F786
:102B6000F70FA389E18203C731838547631AF70012
:102B700003C701839307500A6304F700A389018206
:102B800003C731838D476317F700A3890182054787
:102B9000238AE1820100324441018280411122C630
:102BA0000008B70702409387470405671307079695
:102BB000D8C3B7070240938747049843B70702403A
:102BC000938747041367170098C3010032444101FB
:102BD0008280411122C600080547A38AE182B70717
:102BE0000240938747049443B70702409387470402
:102BF00041677917758F98C3010032444101828083
:102C00005D7186C6A2C48008232EA4FA232CB4FAD0
:102C1000232AC4FA2328D4FA0327C4FBB7070240A7
:102C2000A1076301F7060327C4FBB7070240F107BA
:102C3000630AF7040327C4FBB7070240938707031F
:102C40006302F7040327C4FBB707024093874704D6
:102C5000630AF7020327C4FBB7070240938787057F
:102C60006302F7020327C4FBB70702409387C70636
:102C7000630AF7000327C4FBB707024093870708DE
:102C80006317F70085450545EFE05FF1A9A8032725
:102C9000C4FBB7070240938787406302F70403270A
:102CA000C4FBB70702409387C741630AF7020327B3
:102CB000C4FBB7070240938707436302F702032769
:102CC000C4FBB707024093874744630AF700032712
:102CD000C4FBB7070240938787456316F700854515
:102CE0000945EFE0BFEB0325C4FBEFE0CF9483275A
:102CF00084FB2322F4FC832744FB2324F4FC2326B7
:102D000004FC832704FB2328F4FC232A04FC9307F8
:102D10000008232CF4FC232E04FC232004FE232291
:102D200004FE8D672324F4FE232604FE930744FC4F
:102D3000BE850325C4FBEFE0EFB0054689450325BA
:102D4000C4FBEFE0AFBE85450325C4FBEFE00FBA3F
:102D50000100B640264461618280797106D622D492
:102D60000018232EA4FC232CB4FC85450545EFE078
:102D70005FE78327C4FD81EB854585671385078061
:102D8000EFE03FE635A80327C4FD85476317F7004A
:102D900085450545EFE05FE925A00327C4FD894788
:102DA0006317F70085450945EFE01FE811A80327E1
:102DB000C4FD8D476316F70085451145EFE0DFE65A
:102DC000914601468145032584FDE928FD572314DA
:102DD000F4FE231204FE231504FE231304FE23062F
:102DE00004FE95670327C4FD0A079387076BBA970C
:102DF0009C433E87930744FEBE853A85EFE03FE75C
:102E000095670327C4FD0A079387076BBA979C430E
:102E10008146216681453E85EFF04F8C95670327FB
:102E2000C4FD0A079387076BBA979C439305000775
:102E30003E85EFF00F9B95670327C4FD0A07938734
:102E4000076BBA979C4391453E85EFF0EFAB9567D2
:102E50000327C4FD0A079387076BBA979C43930522
:102E600000083E85EFF0AFAF95670327C4FD0A0762
:102E70009387076BBA979C4385453E85EFE09FF2A9
:102E800095670327C4FD0A079387076BBA979C438E
:102E9000054691653E85EFE07FFD0100B25022546A
:102EA00045618280797106D622D40018232EA4FCB5
:102EB000232CB4FCB2872328D4FCA30BF4FC832777
:102EC000C4FD958393F7F70F9D8BA307F4FE83272B
:102ED000C4FD93F7F70FFD8B2307F4FE0327C4FD12
:102EE00093070008630DF7148327C4FD958391E7CA
:102EF00085451145EFE0FFCE61A88327C4FD13D7B8
:102F0000570085476317F70085452145EFE07FCDE2
:102F100041A08327C4FD13D7570089476317F700E3
:102F200085454145EFE0FFCBA5A08327C4FD13D71E
:102F300057008D476318F700854513050002EFE041
:102F40005FCAB9A08327C4FD13D757009147631800
:102F5000F700854513050004EFE0BFC815A88327D7
:102F6000C4FD13D7570095476318F700854513052F
:102F70000008EFE01FC729A88327C4FD13D7570017
:102F800099476317F700854513050010EFE07FC5EB
:102F90008347E4FE0547B317F700C207C183231038
:102FA000F4FE032784FD85476317F702832704FD9A
:102FB000C207C183A183C207C18389E78D4723224A
:102FC000F4FE11A8832704FDC207C183A183C207B1
:102FD000C1832322F4FE832704FDC207C18393F734
:102FE000F70F2324F4FE0347F4FE95670A0793873F
:102FF0008768BA979C433E87930704FEBE853A854F
:10300000EFE00FBF032784FD8547631BF7020347EB
:10301000F4FE95670A0793878768BA979C43BE8634
:103020008347E4FE0547B317F700C207C183034790
:1030300074FD3A86BE853685EFE02FDE11A00100D3
:10304000B250225445618280797122D60018232E15
:10305000A4FCAE87A30DF4FC8327C4FD958393F7EE
:10306000F70F9D8BA307F4FE8327C4FD93F7F70F9B
:10307000FD8B2307F4FE0347B4FD85476312F70277
:103080008347E4FE0547B316F7000347F4FE956750
:103090000A0793878768BA979C43368798CB05A021
:1030A0008347E4FE0547B316F7000347F4FE956730
:1030B0000A0793878768BA979C433687D8CB010065
:1030C000325445618280797122D60018232EA4FCE7
:1030D0008327C4FD958393F7F70F9D8BA307F4FE19
:1030E0008327C4FD93F7F70FFD8B2307F4FE0347F7
:1030F000F4FE95670A0793878768BA979C439C47B5
:103100000347E4FE85463397E600F98F99C3854768
:1031100011A081473E85325445618280797106D67F
:1031200022D40018232EA4FC232CB4FC232AC4FC94
:1031300085450545EFE0FFAA832644FD014681450C
:103140000325C4FD85338327C4FD958313F7F70F4B
:103150008327C4FD93F7F70FFD8B93F7F70FBE8519
:103160003A85EFE0CFE28327C4FDFD8B0547B31717
:10317000F7002320F4FE232204FE832784FD23246A
:10318000F4FE85472326F4FE930704FE3E85EFE018
:10319000CF870100B250225445618280797106D6F2
:1031A00022D40018232EA4FCAE873687A30DF4FC8E
:1031B000B287230DF4FCBA87A30CF4FC8327C4FD6B
:1031C00093F7F70F2304F4FE8347B4FDA304F4FE42
:1031D0008347A4FD2305F4FE834794FD2326F4FED4
:1031E000930784FE3E85EFE08FEDB7E700E098435C
:1031F000FD777D8FB727002083A747695D8FB727AD
:10320000002023AAE768B7E700E0D843B70700101B
:10321000FD177D8FB727002093874769DC435D8FBB
:10322000B727002093874769D8C3B7270020938723
:10323000476903C7870085476313F7003120010002
:10324000B250225445618280411122C60008B7E77E
:1032500000E07D5723A0E718B7E700E07D5723A2E1
:10326000E7180100324441018280411122C6000862
:10327000B7E700E0372700200327476923A0E710BE
:10328000B7E700E03727002013074769584323A218
:10329000E7100100324441018280011106CE22CCA8
:1032A0000010B72700209387476905472384E7006C
:1032B000B727002083A7476991EBB72700209387A2
:1032C0004769DC4381E7A30704FE21A08547A307E4
:1032D000F4FE9D3F8347F4FE3E85F2406244056163
:1032E0008280011106CE22CC0010AA87A307F4FE2B
:1032F0008347F4FE81EBB727002093874769238437
:103300000700A5370100F2406244056182807971AF
:1033100006D622D40018232EA4FCAE87231DF4FC6D
:103320008327C4FD81EB8545856713850780EFE022
:103330005F8B35A80327C4FD85476317F7008545D4
:103340000545EFE07F8E25A00327C4FD894763175D
:10335000F70085450945EFE03F8D11A80327C4FD1F
:103360008D476316F70085451145EFE0FF8B8357C6
:10337000A4FD91EF956793864765956713868769E6
:1033800093052003956713858765EF10C00203A797
:1033900081839307007DB357F702C207C183FD17EE
:1033A000C207C1832314F4FE8357A4FD8607C20716
:1033B000C183FD17C207C1832312F4FE231504FE47
:1033C000231304FE230604FE95670327C4FD0A07A2
:1033D0009387076BBA979C433E87930744FEBE854D
:1033E0003A85EFE0DF8895670327C4FD0A079387D6
:1033F000076BBA979C43054685453E85EFE01FA0C5
:1034000095670327C4FD0A079387076BBA979C4308
:1034100085453E85EFE03FE18327C4FD81EB85468E
:103420000946854513059002953BB1A00327C4FDCD
:1034300085476319F7008546094685451305C0028F
:10344000B13B15A80327C4FD8947631AF7008546D9
:10345000094685451305D002EFF05FD429A803275C
:10346000C4FD8D476319F700854609468545130558
:10347000E002EFF0BFD295670327C4FD0A079387E8
:10348000076BBA979C4385453E85EFE0BF910100ED
:10349000B250225445618280011106CE22CC001028
:1034A0002326A4FE2324B4FE8327C4FE81EB914689
:1034B000014681452145EFF0FF9E59A80327C4FE30
:1034C00089476319F7009146014681450145EFF0B0
:1034D0007F9DBDA80327C4FE91476319F70091465D
:1034E000014681453D45EFF0FF9B9DA00327C4FEAB
:1034F00099476319F7009146014681451945EFF058
:103500007F9AB9A00327C4FEA147631AF70091462A
:103510000146814513056004EFF0DF9815A80327E5
:10352000C4FEA947631AF700914601468145130579
:103530004002EFF03F9729A80327C4FEB147631963
:10354000F70091460146814513056002EFF09F9513
:10355000032784FE85476319F7009146014681459C
:103560002545EFF03F9461A8032784FE8D4763193A
:10357000F7009146014681450545EFF0BF9241A015
:10358000032784FE9547631AF7009146014681455B
:1035900013053002EFF01F919DA0032784FE9D4785
:1035A0006319F7009146014681451D45EFF09F8F55
:1035B000B9A0032784FEA547631AF7009146014688
:1035C000814513057004EFF0FF8D15A8032784FED5
:1035D000AD47631AF7009146014681451305500235
:1035E000EFF05F8C29A8032784FEB5476319F70025
:1035F00091460146814513057002EFF0BF8A010034
:10360000F240624405618280797106D622D40018A6
:10361000232EA4FC232CB4FC232AC4FC8327C4FD42
:1036200081EB8545856713850780EFE08FDB35A843
:103630000327C4FD85476317F70085450545EFE07F
:10364000AFDE25A00327C4FD89476317F700854532
:103650000945EFE06FDD11A80327C4FD8D47631610
:10366000F70085451145EFE02FDC832544FD032558
:1036700084FD1D3585450545EFE0AFD6032784FD64
:103680009147631FF700032744FD9547631AF7002E
:103690008545B707180013850730EFD09FFBA1A021
:1036A000032784FDA147631FF700032744FDA547B7
:1036B000631AF7008545B7171A00138507C0EFD0C6
:1036C0005FF915A0032784FDA947631EF7000327B0
:1036D00044FDAD476319F7008545B7171A001385F8
:1036E0000780EFD01FF7930744FE3E85EFE0CFE75A
:1036F00085472312F4FEFD572314F4FE231504FE20
:10370000231304FE230604FE95670327C4FD0A075E
:103710009387076BBA979C433E87930744FEBE8509
:103720003A85EFE0CFD495670327C4FD0A07938756
:10373000076BBA979C438146014689453E85EFE079
:103740003F8F95670327C4FD0A079387076BBA97D6
:103750009C4385453E85EFE0EFE40100B2502254E2
:1037600045618280797122D60018232EA4FC9567CA
:103770000327C4FD0A079387076BBA979C4383D737
:103780004702C207C1832317F4FE8317E4FE3E8578
:10379000325445618280011122CE00102326A4FEFE
:1037A00095670327C4FE0A079387076BBA979C4364
:1037B000239207020100724405618280011122CE2A
:1037C00000102324A4FE2326B4FE37F700E02320B4
:1037D000070037F700E02302070037F700E0A302F5
:1037E000070037F700E02303070037F700E0A303E3
:1037F000070037F700E02304070037F700E0A304D1
:10380000070037F700E02305070037F700E0A305BE
:10381000070037F700E0854614C3010037F700E0E2
:1038200011071843BA8701480327C4FEC286636D97
:10383000D7000327C4FEC286E312D7FE032784FE07
:10384000BE866363D700D9BF0100724405618280E0
:10385000011106CE22CC00102326A4FE2324B4FEA0
:103860008327C4FE85E7032784FE85476310F7029C
:1038700093068031014685452545EFF0AFE291463C
:10388000014681452945EFF0EFE165A00327C4FE1D
:1038900089476312F7029306803101468545130577
:1038A0006002EFF02FE0914601468145130570025A
:1038B000EFF04FDFBDA80327C4FEC1476310F70236
:1038C00093068031014685450945EFF0AFDD91460D
:1038D000014681450D45EFF0EFDCA1A80327C4FEAA
:1038E000930700026312F702930680310146854573
:1038F0001305A002EFF00FDB914601468145130549
:10390000B002EFF02FDA35A00327C4FE93072002A0
:103910006311F70293068031014685451305A00423
:10392000EFF04FD89146014681451305B004EFF002
:103930006FD70100F240624405618280797106D63A
:1039400022D40018232EA4FC232CB4FC232AC4FC6C
:103950002328D4FC85450545EFE0AFA8832504FD69
:10396000032544FDF535032744FD8947631BF70014
:10397000032704FD8D476316F70085451145EFD0F9
:103980005FCD032744FD93072002631FF700032741
:1039900004FD930730026319F7008545B70714004B
:1039A00013850701EFD0FFCA8327C4FD91E7854542
:1039B0001165EFE00FA335A00327C4FD8547631809
:1039C000F700854537050200EFE00FA619A8032789
:1039D000C4FD89476317F700854537050400EFE00C
:1039E000AFA4832784FD2320F4FE231204FE2313B7
:1039F00004FE231404FE231604FEB1472315F4FE2F
:103A000095670327C4FD0A079387076CBA979C4301
:103A10003E87930704FEBE853A85EFE0BF83956736
:103A20000327C4FD0A079387076CBA979C43854513
:103A30003E85EFE07FA50100B250225445618280AF
:103A4000011122CE00102326A4FEAE87A305F4FEAA
:103A5000010095670327C4FE0A079387076CBA978E
:103A60009C4383D70700C207C18393F70708F5D3A8
:103A700095670327C4FE0A079387076CBA979C4390
:103A80003E878347B4FEC207C1832312F7000100BB
:103A9000724405618280011106CE22CC00102326DB
:103AA000A4FE2324B4FE2322C4FE29A8832784FE77
:103AB000138717002324E4FE83C70700BE85032570
:103AC000C4FEBD3F832744FE1387F7FF2322E4FE95
:103AD000F1FF0100F240624405618280011106CECF
:103AE00022CC00102326A4FEAE87A305F4FE956722
:103AF0000327C4FE0A079387076CBA979C430546C1
:103B0000930550523E85EFE03F9E8327C4FE938786
:103B100057030347B4FEBA86014685453E85EFF05C
:103B2000EFE70100F240624405618280411106C660
:103B300022C40008B7170240DC43C98313F7F7001B
:103B4000B7177A00938707203307F702B727F400E7
:103B5000938707403E9723ACE18293063002130619
:103B60002002F167938507200945EFF03FDD010052
:103B7000B240224441018280797106D622D40018D5
:103B8000232EA4FC232CB4FC232AC4FC232604FEED
:103B9000A9A0010095679387076C9C4793050004D3
:103BA0003E85EFE09FA3AA87F5D795679387076CBB
:103BB0009C47BE86832784FD13871700232CE4FCD3
:103BC00083870700C207C183BE853685EFE01F9E4D
:103BD0008327C4FE85072326F4FE0327C4FE83271C
:103BE00044FDE348F7FA832744FD3E85B250225452
:103BF00045618280011122CE0010232604FE232479
:103C000004FEB71702409443B71702404167558F2F
:103C100098C3B71702409843B7070200F98F2324CF
:103C2000F4FE8327C4FE85072326F4FE832784FE43
:103C300099E70327C4FE93070050E31CF7FCB7176E
:103C400002409843B7070200F98F89C785472324AC
:103C5000F4FE19A0232404FE032784FE854763177E
:103C6000F70CB72702409843B727024013670701B4
:103C700098C3B72702409843B7270240719B98C367
:103C8000B72702409843B72702401367270098C31D
:103C900037170240B71702405843D8C337170240BE
:103CA000B71702405843D8C337170240B71702402E
:103CB0005843D8C3B7170240D443B7170240370759
:103CC000C1FF7D17758FD8C3B7170240D443B7170C
:103CD000024037072500558FD8C3B71702409443D9
:103CE000B717024037070001558F98C30100B71777
:103CF00002409843B7070002F98FF5DBB71702407F
:103D0000D843B7170240719BD8C3B7170240D843B6
:103D1000B717024013672700D8C30100B717024046
:103D2000DC4313F7C700A147E31AF7FE0100724412
:103D300005618280411106C622C40008B7170240FF
:103D40009843B71702401367170098C3B71702408C
:103D5000D443B71702403707FFF8758FD8C3B7179A
:103D600002409443B71702403707F7FE7D17758F5F
:103D700098C3B71702409443B71702403707FCFFB8
:103D80007D17758F98C3B7170240D443B717024009
:103D9000370781FF7D17758FD8C3B71702403707E4
:103DA0009F0098C7EFF01FE50100B2402244410197
:103DB0008280011106CE22CC00102326A4FE2324EB
:103DC000B4FEB287A303F4FE1306800281450325E7
:103DD000C4FEEFC0EFB68327C4FE03D727001377D6
:103DE000F7F0136707082391E7008327C4FE032732
:103DF00084FED8C38327C4FEDC438297AA87858BC1
:103E000013F7F70F8327C4FE1316F70083D6270096
:103E100021677D17758FBA863287558F2391E7000A
:103E2000834774FE858B13F7F70F8327C4FE058B3A
:103E30001316E70083D6270071777D17758FBA8632
:103E40003287558F2391E7000100F24062440561FB
:103E50008280011122CE00102326A4FE2324B4FE6A
:103E60002322C4FE0327C4FE832784FE8A07BA9751
:103E7000032744FE98C7010072440561828079716E
:103E800006D622D40018232EA4FC8327C4FDDC43CD
:103E90008297AA87A307F4FE8327C4FD83D7270050
:103EA00093F70770C207C18389CF8327C4FD83D7E7
:103EB000070085071397070141838327C4FD2390DB
:103EC000E7008327C4FD9C43FD8393F7F70F3E87EC
:103ED0008347F4FE6385E7088327C4FD9C43ED8395
:103EE0009D8B93F7F70F85079D8B13F7F70F8327AC
:103EF000C4FD1D8B1316B70083D6270071771307F7
:103F0000F77F758FBA863287558F2391E700832715
:103F1000C4FD9C43ED839D8B13F7F70F894763FA2C
:103F2000E7048347F4FE858B13F7F70F8327C4FD5F
:103F30001316F70083D6270021677D17758FBA8681
:103F40003287558F2391E7008327C4FD83D627004E
:103F500071771307F77F758F2391E70019A88327DF
:103F6000C4FD83D6270071771307F77F758F2391E0
:103F7000E7008327C4FD9C43E1839D8B93F7F70FF4
:103F800015476363F73A1397270095679387076D83
:103F9000BA979C4382878327C4FD9C43FD8313F714
:103FA000F70F8327C4FD9C43F983858B93F7F70FA5
:103FB000631CF7048327C4FD03D727001377F7F0AA
:103FC0002391E7008327C4FD9C4799C78327C4FD3D
:103FD0009C470325C4FD82978327C4FD23900700D7
:103FE0008327C4FD03D72700419B13671700239144
:103FF000E7008327C4FD03D727001377F78F1367E4
:1040000007102391E7000DA68327C4FD03D72700DF
:104010001377F7F0136707082391E70031A683278A
:10402000C4FD9C43FD8313F7F70F8327C4FD9C4316
:10403000F983858B93F7F70F6305F7048327C4FD96
:1040400003D727001377F7F0136707012391E700E1
:104050008327C4FDDC4799C78327C4FDDC470325BC
:10406000C4FD82978327C4FD239007008327C4FDE6
:1040700003D727001377F78F136707202391E700F3
:1040800069AC8327C4FD03D707009307800C63F650
:10409000E7288327C4FD03D727001377F7F01367BA
:1040A00007052391E7008327C4FDDC4F99C78327C9
:1040B000C4FDDC4F0325C4FD82978327C4FD03D7CD
:1040C00027001377F78F136707502391E700B1A4F8
:1040D0008327C4FD9C43FD8313F7F70F8327C4FD9B
:1040E0009C43F983858B93F7F70F6314F7088327B5
:1040F000C4FD03D727001377F7F02391E700832748
:10410000C4FD9C4799C78327C4FD9C470325C4FD74
:1041100082978327C4FD9C43C183BD8B93F7F70F20
:104120008507BD8B13F7F70F8327C4FD1376F700C0
:1041300003D72700419BBA863287558F2391E7002A
:104140008327C4FD9C4B99C78327C4FD9C4B032543
:10415000C4FD82978327C4FD239007008327C4FDF5
:1041600003D727001377F78F136707302391E700F2
:104170007DA28327C4FD03D707009307C00363F024
:10418000E71A8327C4FD83D72700BD8B1397070148
:10419000418385476317F7028327C4FD03D72700B0
:1041A0001377F7F0136707032391E7008327C4FD14
:1041B000DC4BB9C78327C4FDDC4B0325C4FD8297C4
:1041C00081A08327C4FD83D72700BD8B13970701E8
:1041D000418389476316F7028327C4FD03D727006D
:1041E0001377F7F0136707042391E7008327C4FDD3
:1041F0009C4F99C78327C4FD9C4F0325C4FD82971C
:104200008327C4FD03D727001377F78F2391E70097
:1042100039A28327C4FD9C43FD8313F7F70F83273F
:10422000C4FD9C43F983858B93F7F70F630BF70E5F
:104230008327C4FD03D727001377F7F0136707011F
:104240002391E7008327C4FDDC4799C78327C4FD7A
:10425000DC470325C4FD82978327C4FD03D70700ED
:104260009307B00363E1E7028327C4FD23900700AF
:104270008327C4FD03D727001377F78F1367072021
:104280002391E70079A88327C4FD03D7270013777C
:10429000F78F2391E70071A08327C4FD9C43FD8322
:1042A00013F7F70F8327C4FD9C43F983858B93F79E
:1042B000F70F6317F7028327C4FD03D7270013778F
:1042C000F7F0136707062391E7008327C4FD9C538B
:1042D000B9CB8327C4FD9C530325C4FD8297A1A0BD
:1042E0008327C4FD03D727001377F7F0136707016F
:1042F0002391E7008327C4FDDC4799C78327C4FDCA
:10430000DC470325C4FD82978327C4FD03D727001C
:104310001377F78F2391E70039A0010031A0010046
:1043200021A0010011A001000100B25022544561FA
:104330008280797122D60018232EA4FC83A70184E1
:104340002326F4FE31A80327C4FE8327C4FD63148B
:10435000F700FD571DA08327C4FEDC532326F4FE7F
:104360008327C4FEEDF303A701848327C4FDD8D3BC
:104370000327C4FD23A0E18481473E853254456173
:104380008280011106CE22CC001083A7018423264F
:10439000F4FE11A80325C4FEEFF07FAE8327C4FE10
:1043A000DC532326F4FE8327C4FEEDF70100F24020
:1043B0006244056182809387C1809C4341113288A9
:1043C00006C6AA882E87C8473686971700009387A7
:1043D000E73163170800971700009387E7313E889D
:1043E000C68697150000938565311920EF00F00A05
:1043F000397132D436D63EDA3AD842DC46DE93877B
:10440000C1802E86AA858843341006CE36C68D28F4
:10441000F240216182801C46FD171CC663D907004B
:10442000184E63C5E700A9476393F5004DA51C42EC
:104430002E851387170018C22380B70082800111D0
:1044400022CC26CA4AC84EC652C406CE2A89AE8994
:104450003284B304D6007D5A63149400014509A840
:10446000834504004E864A857D370504E31645FFE3
:10447000F2406244D2444249B249224A05618280F4
:10448000357122CD26CB4AC94EC706CF52C556C379
:104490005AC1DEDEE2DCE6DAAA89AE8432893684ED
:1044A00009C51C4D99E3EF00F0259717000093878D
:1044B000A72D639CF40C83A4490083D7C400A18B6F
:1044C000FDC79C48EDC793070002A304F1029307C0
:1044D000000302D22305F10222C6930B5002971A61
:1044E0000000938AAA24054C294B4A848347040080
:1044F00099C36390770FB30C2441638D0C00E6865B
:104500004A86A6854E85253FFD576308F51E9256BF
:10451000E69636D2834704006381071EFD571309D0
:10452000140002C802CE3ECA02CCA309010482D400
:104530008345090015465685EF0090431304190082
:10454000C24751E913F7070109C713070002A3097E
:10455000E10413F7870009C71307B002A309E104B8
:10456000834609001307A002638FE606F2474A84D8
:10457000814625460347040093051400130707FDF1
:104580006378E60AADCA3ECEBDA0971700009387B8
:10459000A7216395F40083A4890005B7971700004D
:1045A0009387871CE39BF4F083A4C90039B7A685E1
:1045B0004E85F12B09D97D55FA406A44DA444A49BF
:1045C000BA492A4A9A4A0A4BF65B665CD65C0D6188
:1045D0008280050421BF330555413315AC00C98FD6
:1045E0003EC82289B1B7324793064700184336C602
:1045F000634907023ACE034704009307E002631FB2
:10460000F704034714009307A002631BF702B247A5
:104610000904138747009C433AC663C107023ECA98
:1046200035A83307E04093E727003ACE3EC8E1B70C
:10463000B387670385462E84BA972DBFFD57C5B74C
:10464000050402CA814681472546034704009305B5
:104650001400130707FD6378E606F1F283450400B2
:104660000D46171500001305E50CEF00703011CD55
:10467000971700009387070C1D8D93070004B397CD
:10468000A700424505045D8D2AC8834504001946EC
:10469000171500001305450A130914002304B1027D
:1046A000EF00102D3DC197C7FFFF9387A79595E7B2
:1046B0004247B2471377071009CF91073EC692577A
:1046C000D2973ED21DB5B387670385462E84BA972D
:1046D000ADBF9D07E19BA107D5B778009706000005
:1046E000938626D626860C084E8597000000E700A4
:1046F0000000FD572A8AE314F5FC83D7C40093F722
:104700000704E39A07EA125545BD780097060000B2
:10471000938626D326860C084E85012AD9BF797147
:1047200056CA9C49BA8A984522D426D24ECE52CC3B
:1047300006D64AD05AC85EC6AA892E84B284368A62
:1047400063D3E700BA879CC00347340419C38507C5
:104750009CC01C4093F7070281C79C4089079CC0FE
:104760000329040013796900631A0900130B9401EB
:10477000FD5B5C449840998F634CF9041C40834670
:10478000340493F70702B336D000A5EB13063404C4
:10479000D2854E85829AFD576303F5041C4011466D
:1047A0009840998B544481446397C700B384E64092
:1047B00063D3040081441C4418486354F700998F64
:1047C000BE94014969047D5B63982405014509A8ED
:1047D00085465A86D2854E85829A631E75017D551F
:1047E000B250225492540259F249624AD24A424B80
:1047F000B24B456182800509ADBF3307D400130673
:104800000003A301C7040347540493871600A2972B
:104810008906A381E7049DBF85462286D2854E8501
:10482000829AE30E65FB050945B7797122D426D239
:104830004AD04ECE06D652CC56CA5AC8B68983C67E
:1048400085019307E0063289AA842E8413863504F5
:104850006381F61E63E2D706930730066382F60A89
:1048600063EDD700638B061E930780056387F616FA
:10487000930A24042301D40469A89307400663869D
:10488000F60093079006E395F6FE1C40084393F666
:10489000070893054500C1C21C410CC363D807003B
:1048A0001307D002B307F040A301E40497160000F9
:1048B000938606E9294765A0930730076383F61AB4
:1048C00063EFD7009307F006638FF60493070007A2
:1048D000E390F6FA9C4193E707029CC109A893076D
:1048E00050076382F60493078007E393F6F8930773
:1048F0008007A302F404971600009386A6E5E5A0BE
:104900001C43938A2504938647009C4314C3238148
:10491000F5048547B5A293F607041C410CC3BDDE20
:10492000C207C187A5BF0C401C4313F805081385B7
:1049300047006305080008C39C4339A093F50504AC
:1049400008C3FDD983D707001307F006638BE60C75
:10495000971600009386C6DE2947A30104044C4045
:104960000CC463C5050008406D9908C099E3B28A7C
:1049700091CDB28AB3F5E702FD1AB69583C505005D
:104980002380BA00B3D5E70263F3E70AA147631EA9
:10499000F7001C40858B91CB58401C4863C7E7004B
:1049A00093070003A38FFAFEFD1A3306564110C881
:1049B0004E87CA867000A2852685EFF05FD67D5AA5
:1049C0006314450D7D55B250225492540259F24958
:1049D000624AD24A424B45618280A382D50497162F
:1049E00000009386E6D50C40084313F805081C41E7
:1049F00011056300080208C313F7150001C793E50A
:104A000005020CC04147B1FB0C4093F5F5FD0CC00D
:104A1000A9B713F8050408C3E30008FEC207C18361
:104A2000E1BF971600009386A6D121473DB7AE8718
:104A300091B794411C43CC4913F8060813854700ED
:104A40006306080008C39C438CC301A808C393F6FF
:104A500006049C43F5DA2390B70023280400B28AA9
:104A600081BF1C43D04181459386470014C383AA6C
:104A700007005685F52D01C53305554148C05C40FA
:104A80001CC8A30104042DB714485686CA85268580
:104A90008299E30945F31C40898B8DE7B24748446E
:104AA000E353F5F23E8505B785465686CA852685C9
:104AB0008299E30965F1050A5C443247998FE34521
:104AC000FAFEE9BF014A930A94017D5BF5B7011133
:104AD00022CC26CA4AC806CE4EC6AA842E89328463
:104AE00001C51C4D91E33929971700009387C7C969
:104AF0006319F406C0401C4C1CC48357C400A18B2E
:104B0000C9C31C48BDCF1C4808409379F90F1379DD
:104B1000F90F1D8D5C486346F500A2852685D924D2
:104B20002DE51C440505FD171CC41C401387170008
:104B300018C0238037015C486389A7008357C400ED
:104B4000858B81CBA9476316F900A2852685592C50
:104B50000DEDF24062444A85D2444249B2490561B2
:104B6000828097170000938727C46314F400804461
:104B700059B797170000938727BFE31EF4F6C04488
:104B80009DBFA285268521203DDD7D59D9B74111E4
:104B90009387C18026C2844322C44AC006C62A899C
:104BA0002E8489C49C4C99E32685A92E9717000072
:104BB000938787BD631CF402C0400317C40093179A
:104BC0000701C18393F68700B5EE93F607019DEECA
:104BD000A5472320F900136707042316E4007D5539
:104BE000B24022449244024941018280971700005A
:104BF000938787BB6314F4008044C1B79717000004
:104C0000938787B6E31BF4FAC04445BF918B8DC7E9
:104C10004C5889C9930744046384F5004A85B52339
:104C2000232A04028357C4002322040093F7B7FD0C
:104C30002316F4001C481CC08357C40093E7870068
:104C40002316F4001C4881EF8357C400130700208B
:104C500093F707286385E700A2854A859D29835736
:104C6000C40013F7170005C75C4823240400B307EA
:104C7000F0401CCC1C480145A5F78317C40013F76E
:104C8000070839DF93E707042316F40089BF898BEF
:104C9000014791E3584818C4F1BF4111194506C6B0
:104CA000FD250545EF00D01A83D7C500011122CCA0
:104CB00026CA06CE4AC84EC613F78700AA842E8499
:104CC00071EFD841634DE000B841634AE00001450F
:104CD000F2406244D2444249B2490561828058544C
:104CE0007DD703A904009396370123A0040063DD58
:104CF000060670488357C400918B99C75C401D8E8F
:104D00005C5899C33C401D8E5C540C5081462685EE
:104D10008297FD570357C400631DF5009440F54783
:104D200063E8D706B70740208507B3D7D700858B40
:104D3000A5C31C48232204001CC09317370163D865
:104D40000700FD576314F5009C4091E368C84C5878
:104D500023A02401ADDD930744046384F500268578
:104D60002D21232A0402A5B70C500146854626852D
:104D70000297FD572A86E31FF5F69C40A5DF75478D
:104D80006385E70059476394E70423A0240181B7B2
:104D9000136707042316E4007D551DBF83A9050191
:104DA000E38709F203A905008D8B23A035013309A0
:104DB0003941014791E3D84918C4E35A20F11C5402
:104DC0000C50CA864E86268582976349A000835779
:104DD000C40093E707042316F4007DBFAA993309A2
:104DE000A940E1BF9C49A5C3011122CC06CE2A846B
:104DF00011C51C4D81E72EC63122B2459717000020
:104E000093878798639CF5004C408397C5009DC7A6
:104E100022856244F24005616FF01FE99717000098
:104E2000938787986394F5000C44C5B797170000E3
:104E300093878793E39BF5FC4C44C1BFF2406244E7
:104E400001450561828001458280411122C406C668
:104E50002A842316B5002317C5002320050023222A
:104E60000500232405002322050623280500232A04
:104E70000500232C0500214681451305C505EFB02B
:104E80002FAC970700009387C7545CD097070000AA
:104E9000938727571CD4970700009387675B5CD4E0
:104EA000970700009387275E00D01CD8B2402244A9
:104EB0004101828097050000938505F389AA41117D
:104EC00026C2130680069384F5FFB384C4024AC049
:104ED0002E8922C406C693854407912E2A8401CDCB
:104EE0002320050023222501310508C413868406EA
:104EF0008145EFB0EFA42285B2402244924402499A
:104F0000410182801C4DA5E7411106C622C49707C6
:104F10000000938767FA1CD5938701819C43232463
:104F2000050423260504232805046314F50085479A
:104F30001CCD2A84352848C022851D2808C4228516
:104F4000052848C4484001469145EFF01FF0084449
:104F50000546A545EFF07FEF48440946C945EFF007
:104F6000DFEE85471CCCB240224441018280828022
:104F700041119387018126C284434AC006C69C4CD6
:104F800022C42A8999E32685B53F9384840480440A
:104F9000DC40FD1763D607009C40B9CF8440C5BFF5
:104FA0000317C40039E7C1778507232204062320AD
:104FB000040023220400232404005CC423280400EA
:104FC000232A0400232C0400214681451305C4052F
:104FD000EFB00F97232A0402232C04022324040495
:104FE000232604042285B24022449244024941010E
:104FF00082801304840671BF91454A85EFF03FEC2F
:1050000088C049FDB1472320F9000144E1BF79710F
:1050100022D44AD052CC56CA5AC85EC606D626D228
:105020004ECE2A8AAE8A130485040149054BFD5BE6
:1050300009ECB25022544A8592540259F249624A0C
:10504000D24A424BB24B45618280044483294400DA
:10505000FD1963D409000040E1BF83D7C400637B1E
:10506000FB008397E40063877701A6855285829AC7
:105070003369A90093848406E1BF1971A6DAAE846E
:105080008395E500A2DC86DE328463DC050083D7ED
:10509000C40023A0060093F707089DE39307004090
:1050A00015A0300836C6A121B246E34205FE72477C
:1050B000BD67F98F7977BA9793B717009CC2F9BF8C
:1050C000930700041CC0F6506654D654014509618C
:1050D000828083D7C500011122CC06CE26CA4AC8D9
:1050E000898B2E8489CF930774041CC01CC8854704
:1050F0005CC8F2406244D244424905618280740037
:105100003000AA84EFF07FF7A2452A892685052280
:1051100001ED8317C40013F7072061FFF19B93E7AC
:1051200027002316F400C1B7970700009387C7D85C
:105130009CD48357C40008C008C893E70708231607
:10514000F400A2475CC8B24789CF8315E4002685E6
:10515000C12E01C98357C400F19B93E717002316A2
:10516000F4008357C4003369F9002316240151B7B2
:1051700093F5F50F2A966314C50001458280834795
:105180000500E38DB7FE0505FDB7CDC183A7C5FFBB
:10519000411122C406C626C21384C5FF63D307008B
:1051A0003E94AA84C526938741849C4399EB23228D
:1051B000040023A281842244B24026859244410106
:1051C000D9A6637EF40014403307D4006396E70049
:1051D0009843DC43369718C05CC0E1BFBA87D84318
:1051E00019C3E37DE4FE94433386D700631F860032
:1051F0001040B29694C33386D700E31EC7FA10431B
:105200005843B29694C3D8C37DB76375C400B14701
:105210009CC055B71040B306C4006316D7001443B2
:105220005843B29614C058C0C0C371B782800111F0
:1052300026CA93843500F19806CE22CC4AC84EC6C1
:10524000A104B14763F1F404B14463E0B4042A89D2
:10525000152E9387418498433A8431E09387818463
:105260009C4391E781454A85512823A4A184A685C2
:105270004A856920FD5963173507B1472320F90096
:105280004A85112629A0E3D204FCB1471CC101457F
:10529000F2406244D2444249B249056182801C40D6
:1052A000858F63CE0702AD4663F6F6001CC03E94C0
:1052B00004C031A05C406312870223A2F1844A85B6
:1052C000D9241305B4009307440061993307F540CE
:1052D00061D33A94898F1CC065BF5CC3CDB7228768
:1052E0004040A5BF130435007198E30385FCB30566
:1052F000A4404A852120E31D35FB41B7411122C45A
:105300002A842E8597D7FF1F23AE073806C6392E6D
:10531000FD576319F50097D7FF1F9387A7389C4364
:1053200091C31CC0B240224441018280FD4763F614
:10533000B700D9471CC17D5582807C41011122CC28
:1053400006CE2E862A8491C713972500BA979843D4
:1053500019EB228532C69D28AA85228562443246F1
:10536000F24005611DA8854601456308D700FD563A
:105370006319D700D9471CC00545F2406244056156
:1053800082802E8523A0070002970145FDB79387F1
:10539000C180AA8588436FF07FF9411122C42A8415
:1053A0002E85B28597D7FF1F23AE072E06C6B924D8
:1053B000FD576319F50097D7FF1F9387A72E9C43CE
:1053C00091C31CC0B24022444101828001AC411112
:1053D00022C42E848395E50006C67D22634905001C
:1053E0007C48AA977CC8B2402244410182808357FE
:1053F000C4007D777D17F98F2316F400EDB783D7AE
:10540000C500011122CC26CA4AC84EC606CE93F763
:105410000710AA842E843289B68991C78395E50046
:105420008946014635228357C4007D777D17F98F61
:105430002316F4008315E4006244F240CE864A86C7
:10544000B24942492685D24405613DA8411122C492
:105450002E848395E50006C6E528FD570357C40052
:10546000631BF500FD77FD17F98F2316F400B2409A
:105470002244410182808567D98F2316F40068C8D1
:10548000FDB78395E50025A8411122C42A842E8505
:10549000B285368697D7FF1F23A6072006C6EFE002
:1054A000AFEDFD576319F50097D7FF1F9387871F4F
:1054B0009C4391C31CC0B2402244410182804111EF
:1054C00022C42A842E8597D7FF1F23AD071C06C64A
:1054D000F520FD576319F50097D7FF1F9387871CA9
:1054E0009C4391C31CC0B2402244410182804111BF
:1054F00022C42A842E85B28597D7FF1F23A4071ABA
:1055000006C6E920FD576319F50097D7FF1F93875B
:1055100067199C4391C31CC0B24022444101828060
:10552000411122C42A842E8597D7FF1F23AC07166A
:1055300006C66D28FD576319F50097D7FF1F93879F
:1055400067169C4391C31CC0B24022444101828033
:10555000411122C42A842E85B285368697D7FF1F33
:1055600023A2071406C65D20FD576319F50097D7DF
:10557000FF1F938727139C4391C31CC0B240224452
:105580004101828082808280411122C42A842E853A
:10559000B285368697D7FF1F23A6071006C6BD28FB
:1055A000FD576319F50097D7FF1F9387A70F9C43FB
:1055B00091C31CC0B2402244410182809307800500
:1055C00017D7FF1F2320F70E7D5582809307800594
:1055D00017D7FF1F2328F70C7D558280930780057E
:1055E00017D7FF1F2320F70C7D5582809307800576
:1055F00017D7FF1F2328F70A0145828093078005EC
:1056000017D7FF1F2320F70A7D5582809307800557
:1056100017D7FF1F2328F7087D5582809307800541
:1056200017D7FF1F2320F7087D5582809387C184F9
:105630009C4391C73E9523A6A1843E85828097D73F
:10564000FF1F938767063E9523A6A1843E8582802F
:1056500001A000006D7300002E2E2F4C6962726154
:10566000726965732F7365656B667265655F6C69DA
:10567000627261726965732F7A665F7069742E63F6
:10568000000000007573000000080140000C01409C
:10569000001001400014014074696D65725F70690B
:1056A000745F696E746572727570745F6D730000FB
:1056B000002C0140000000400004004000080040B1
:1056C000003801400044004000480040004C0040C9
:1056D000963F00001E400000D04000001242000033
:1056E00028430000984200002C2066756E637469A0
:1056F0006F6E3A2000000000617373657274696F09
:105700006E2022257322206661696C65643A2066EA
:10571000696C6520222573222C206C696E6520251A
:1057200064257325730A0000232D302B2000000010
:10573000686C4C006566674546470000303132337F
:10574000343536373839414243444546000000007D
:1057500030313233343536373839616263646566E7
:105760000000000000000000000000000000000039
:105770000000000000000000000000000000000029
:105780000000000000000000000000000000000019
:105790000000000000000000000000000000000009
:1057A00000000000000000000000000000000000F9
:1057B00000000000000000000000000000000000E9
:0457C00000000000E5
:1057C40000000000010203040102030406070809A3
:1057D4000100000002002C01030032000400BC00A0
:1057E4000500320006000000070000000800200049
:1057F400000000000100000002000000030000009F
:10580400040000000500000006000000070000007E
:10581400080000000000000084570000A4570000A6
:1058240064570000000000000000000000000000B9
:105834000000000000000000000000000000000064
:105844000000000000000000000000000000000054
:105854000000000000000000000000000000000044
:105864000000000000000000000000000000000034
:10587400000000000000000001000000020406080F
:10588400010000005400002054000020000000002B
:00000001FF
