:100000006F10007E130000001300000013000000BA
:100010001300000013000000130000001300000094
:100020001300000013000000130000001300000084
:08003000130000007300100032
:100038006FF09FFC000000006F00804B6F00404C89
:1000480000000000000000000000000000000000A8
:100058000000000000000000000000000000000098
:100068006FF09FF9000000006FF01FF9000000001A
:100078006FF09FF86FF05FF86FF01FF86FF0DFF721
:100088006FF09FF76FF05FF76F0080726F00401599
:100098006F0020196F00401A6F00001B6FF0DFF52A
:1000A8006FF09FF56FF05FF56F0060406FF0DFF461
:1000B8006FF09FF46FF05FF46F00001C0000000009
:1000C8000000000000000000000000006F00C018E1
:1000D8006F00801B6F00801E6F0040216F0080261C
:1000E8006F00402F6F0080316F0040346FF0DFF0F9
:1000F8006FF09FF06FF05FF06FF01FF06FF0DFEFC1
:100108006FF09FEF6F0060776F0040356F00C07B26
:100118006F0080156FF05FEE6FF01FEE6FF0DFED90
:1001280000000000000000000000000000000000C7
:080138000000000000000000BF
:100140003D432A876373C3029377F700BDEFADE5A4
:10015000937606FF3D8ABA960CC34CC30CC74CC7B6
:100160004107E36BD7FE11E28280B306C3408A06E3
:100170009702000096966780A6002307B700A306A3
:10018000B7002306B700A305B7002305B700A304F3
:10019000B7002304B700A303B7002303B700A302EB
:1001A000B7002302B700A301B7002301B700A300E3
:1001B000B7002300B700828093F5F50F9396850072
:1001C000D58D93960501D58D61B79396270097023B
:1001D000000096968682E78086FA9680C1171D8F6A
:1001E0003E96E374C3F8A5B7411122C6000809453D
:1001F000EF10303B2A8785476314F70203A7C180BD
:1002000089476315F700EF40B03001A803A7C1800C
:1002100085476314F700EF30903B0945EF10D03D60
:1002200001003244410173002030411122C6000810
:100230001145EF10703C0100324441017300203041
:10024000411122C6000801003244410173002030F0
:10025000411122C6000801003244410173002030E0
:10026000411122C6000801003244410173002030D0
:10027000411122C6000801003244410173002030C0
:10028000411122C6000801003244410173002030B0
:10029000411122C6000893050008B73701401385B5
:1002A00007C0EF30201EAA8789CB93050008B73717
:1002B0000140138507C0EF30E023010032444101C3
:1002C00073002030411122C600088545B737014030
:1002D000138507C0EF30001BAA8781CB8545B73750
:1002E0000140138507C0EF30E02001003244410196
:1002F00073002030411122C6000893050004B7376F
:100300000140138507C0EF30E017AA8789CB93051A
:100310000004B7370140138507C0EF30A01D9305D7
:100320000002B7370140138507C0EF30A015AA8738
:1003300089CB93050002B7370140138507C0EF3022
:10034000601B01003244410173002030411122C67C
:1003500000088945B7370140138507C0EF30801288
:10036000AA8781CB8945B7370140138507C0EF3095
:1003700060189145B7370140138507C0EF308010F2
:10038000AA8781CB9145B7370140138507C0EF306D
:100390006016A145B7370140138507C0EF30800EC6
:1003A000AA8781CBA145B7370140138507C0EF303D
:1003B0006014C145B7370140138507C0EF30800C8A
:1003C000AA8781CBC145B7370140138507C0EF30FD
:1003D000601201003244410173002030411122C6F5
:1003E0000008854537050040EF30C009AA8791C74E
:1003F000854537050040EF30E00F010032444101F0
:1004000073002030411122C600088545B70700401F
:1004100013850740EF300007AA8781CB8545B707D2
:10042000004013850740EF30E00C010032444101E9
:1004300073002030411122C600088545B7170040DF
:1004400013850780EF300004AA8781CB8545B71755
:10045000004013850780EF30E0090100324441017C
:1004600073002030411122C6000893055052B7474F
:10047000004013850740EF30E049AA8785CB9305FC
:100480005052B747004013850740EF30C05803A7CC
:10049000C18089476315F700EF40900001A803A7CA
:1004A000C18085476314F700EF30C05B0100324420
:1004B000410173002030411122C600080965EF1088
:1004C000006E2A8785476314F7020965EF10E07212
:1004D00003A7C18089476315F700EF40D00601A844
:1004E00003A7C18085476314F700EF30B011010006
:1004F0003244410173002030411122C6000801003E
:100500003244410173002030411122C6000801A08D
:10051000411122C600089387C18713070000D8D372
:1005200093870190D8D39387818AD8D39387418DBD
:10053000D8D39387C192D8D39387C1922D670327CD
:1005400087F0D8CF0100324441018280011122CED0
:100550000010AA87A307F4FE83C7818413871700BE
:100560009376F70F2384D1843E8793870187BA97C8
:100570000347F4FE2380E70003C781848547631D9A
:10058000F70003C701879307800D6307F7002384F3
:1005900001840947238CE18003C78184B147631636
:1005A000F7020547238CE1809387018703C7B700D3
:1005B0009307E00E6316F7000547238CE18021A026
:1005C0000D47238CE180238401840100724405617E
:1005D0008280011106CE22CC00102326A4FE8327A0
:1005E000C4FE850703C707009307000B6318F702D3
:1005F0008327C4FE890783C70700A2071397070153
:1006000041878327C4FE8D0783C70700C207C187C0
:10061000D98F139707014187239DE1808327C4FE6B
:10062000910703C707009307100B6318F70283278E
:10063000C4FE950783C70700A207139707014187E8
:100640008327C4FE990783C70700C207C187D98FD4
:10065000139707014187239EE1808397C181C207D9
:10066000C183B307F040C207C183139707014187D5
:10067000239EE18083A74184D1EF8327C4FE9D0799
:1006800003C707009307200B631CF7008327C4FEF2
:10069000A10783C707001397070141872392E182CF
:1006A0008327C4FEA50703C707009307100F631233
:1006B000F702B707002003A7C70B9307700C63FA74
:1006C000E70083C79184850713F7F70FA384E184BC
:1006D00019A0A384018403C791848D47631AF7008E
:1006E000A38401840547A380E184054723A2E18414
:1006F0008327C4FEA50703C707009307400F631BAA
:10070000F7000397818385476316F700114723A2FB
:10071000E184FD3B03A7418489476315F704938770
:10072000019C83C7E7011397070141872392E18268
:1007300003C701839307200F6316F70203A7C18342
:100740009307B01263F0E7020D4723A2E184A38070
:10075000018423AE0182B70700200547238CE70AF6
:10076000238801828327C4FEA90703C707009307D4
:10077000200A631CF70083C7A18481EB0547A3838C
:10078000E18205472385E1841DA08327C4FEA907D4
:1007900003C707009307100A631BF70003C7A18470
:1007A00085476316F700A383018223850184010036
:1007B000F240624405618280411122C6000805456D
:1007C000EF10205E2A8785476318F70A0545EF106A
:1007D000A062010083C7818113F7F70F8547E31BF0
:1007E000F7FE238C018013850187E5339385E18132
:1007F00013850182EF60804B839741826355F0043B
:1008000083A7418499EF83974182C207C18393876D
:10081000F7F9C207C1831397070141872391E1824A
:100820001DA003A741848947631FF7008397418276
:10083000C207C183938727FAC207C18313970701B1
:1008400041872391E18283C7118499C783A7C1831C
:100850001387170023AEE18283C7018499CBB707C2
:10086000002083A7C70B13871700B707002023AE0C
:10087000E70A05472383E182010032444101730006
:100880002030011122CE001093055052B74701408D
:1008900013850780EF300008AA8795C7930550524B
:1008A000B747014013850780EF30E016B747014096
:1008B00013850780EF20507FAA87A307F4FE8347A4
:1008C000F4FE3E8561310100724405617300203001
:1008D000011122CE001093055052B75700401385E6
:1008E0000780EF302003AA87F9C79307E4FEBE858F
:1008F0000945EF50501FAA87A307F4FE93055052F5
:10090000B757004013850780EF30E0108347F4FEAF
:100910009DC383C7B184138717009376F70FA38510
:10092000D184BE860347E4FEB7270020938707776C
:10093000B6972380E70003C7B184C147631DF7065C
:10094000B727002083C7077713F7F70F9307A00A8D
:100950006305F700A3850184B9A8B7270020938712
:10096000077783C7F70013F7F70F9307F0026314B5
:10097000F704B545B727002013851777EF602008E7
:10098000AA873E87B72700209387077783C7E700AA
:1009900093F7F70F6309F700A3850184B7270020B9
:1009A0002380077809A89385A1831385818AEF6046
:1009B000C009A385018472440561730020301301CE
:1009C00001B2232E814C1304014E79731A912A87A8
:1009D000F977930604FFB697A38FE7B2B707002015
:1009E0000547238CE70AF977130704FFBA97130723
:1009F00080FB2382E7B4F977130704FFBA97114706
:100A0000A382E7B4239A0182D1A0239B018269A823
:100A1000839741833E8683976183BE86B707002014
:100A20001307C00B3307E6029387C72ABA97B69716
:100A300083C707007977930604FF36970347F7B318
:100A40006376F702839741833E8683976183BE86F0
:100A5000F977130704FF3E979307C00BB307F6021D
:100A6000BA97B69705472384E7B41DA083974183BF
:100A70003E8683976183BE86F977130704FF3E970E
:100A80009307C00BB307F602BA97B697238407B44F
:100A900083976183C207C1838507C207C183139708
:100AA00007014187239BE182039761839307B00B82
:100AB000E3D0E7F683974183C207C1838507C20766
:100AC000C183139707014187239AE18203974183EA
:100AD00093071003E3DBE7F29387019C1307E0051C
:100AE000238FE7002388018293878195130780FB7A
:100AF000A388E7029387C1981147A388E7021307E9
:100B00000003239AE18275A6839741833E879387EA
:100B1000019CBA971307E0052380E7008397418380
:100B20003E8793878195BA971307A0F82380E70043
:100B3000839741833E879387C198BA971307200311
:100B40002380E700A3880182238901828397418360
:100B50003E879387019CBA9783C7070013970701C5
:100B60004187239BE18285A0839741833E868397BB
:100B70006183BE86F977130704FF3E979307C00B86
:100B8000B307F602BA97B69783C787B48DE3039786
:100B9000618383974183BE861377F70F938781958F
:100BA000B6972380E7000547A388E1821DA08397BD
:100BB0006183C207C1838507C207C18313970701F9
:100BC0004187239BE182039761839307A00BE3DDB9
:100BD000E7F8839741833E879387019CBA9783C741
:100BE0000700139707014187239BE18285A0839724
:100BF00041833E8683976183BE86F977130704FF9E
:100C00003E979307C00BB307F602BA97B69783C710
:100C100087B48DE30397618383974183BE861377FF
:100C2000F70F9387C198B6972380E700054723897C
:100C3000E1820DA083976183C207C183FD17C207BC
:100C4000C183139707014187239BE18283976183C7
:100C5000E3DF07F883C7118389C783C72183639ABA
:100C6000071A03974183CD4763C2E702B707002005
:100C700083C7870B81EF83C7118389EB83C72183E8
:100C800091E749572388E182A38901820397418331
:100C90009307300263DCE70283C7118399EB8397E4
:100CA00041833E8793878195BA97130780FB238002
:100CB000E70083C72183A9EF839741833E8793870A
:100CC000C198BA9711472380E70099A08397418381
:100CD0001387170083974183BE8693878195BA97C0
:100CE00003C7070093878195B6972380E700839712
:100CF00041831387170083974183BE869387C198EA
:100D0000BA9703C707009387C198B6972380E70077
:100D100083C711839DE783C7218385E78397418339
:100D20003E8793878195BA97130780FB2380E7005E
:100D3000839741833E879387C198BA971147238051
:100D4000E700F977130704FFBA9703C747B48397FF
:100D50004183BE8693878195B69783C7070063F565
:100D6000E70203974183F94763D0E7028397418302
:100D70003E8793878195BA9703C70700F977930653
:100D800004FFB6972382E7B4F977130704FFBA97F5
:100D900003C757B483974183BE869387C198B6979C
:100DA00083C707006375F70203974183F94763D050
:100DB000E702839741833E879387C198BA9703C719
:100DC0000700F977930604FFB697A382E7B4039769
:100DD0004183F9476313F70483974183BE86F9770C
:100DE000130704FFBA9703C747B493878195B69753
:100DF0002380E70083974183BE86F977130704FFBA
:100E0000BA9703C757B49387C198B6972380E70072
:100E100029A0B7070020238C070A839741833E87C8
:100E200093878195BA9783C707003E87839741834D
:100E3000BE869387C198B69783C70700BA9713D722
:100E4000F701BA9785873E8783974183BE861377DC
:100E5000F70F9387019CB6972380E7008397418320
:100E60003E879387019CBA9703C707009307C00585
:100E700063E5E702839741833E879387019CBA9796
:100E800083C7070003974183BA86890713F7F70FD3
:100E90009387019CB6972380E70083974183C2071D
:100EA000C183FD17C207C183139707014187239AA6
:100EB000E18283974183E3D907C4010009631A9152
:100EC0000324C14D1301014E8280597186D6A2D4EC
:100ED000A6D2CAD0CECED2CCD6CADAC8DEC6E2C43A
:100EE000E6C2EAC06EDE8018EF40204D13074006D0
:100EF000239DE18293076004231FF4FAEF5080449E
:100F000085450945EF50203985460D468545130531
:100F10007003EF40A03AEF304008EF50006BEF5005
:100F20009056AD6783A6C7F0AD6703A707F1AD671D
:100F300083A747F13A86BE851385C187EF50100419
:100F4000AD6783A687F1AD6703A7C7F1AD6783A738
:100F500007F23A86BE8513850190EF503002AD67E7
:100F600083A6C7F0AD6703A7C7F1AD6783A747F2B4
:100F70003A86BE851385418DEF505000AD6783A63C
:100F800087F1AD6703A787F2AD6783A747F13A867C
:100F9000BE851385818AEF50607EAD6703A7C7F2D7
:100FA000AD6783A707F3BA8613060000BE851385D5
:100FB000C192EF50A07C85460146B7170700938584
:100FC00007800145EF50E01285450145EF50A02C08
:100FD00085460146814513055003EF40202E130638
:100FE0008004A14513050002EF40202585460946EF
:100FF00085455945EF40802CEF20F0540145EF40E6
:1010000060408146014681450145EF500069AD676A
:10101000138607EC95450145EF30C0228397418246
:101020008D463E8695451305A005EF30002FAD6730
:10103000138607ED99450145EF30C0208397218243
:101040008D463E8699451305B004EF30002DAD67FF
:101050001386C7ED81450145EF30C01EAD6713868D
:1010600047EE85450145EF30E01D9387818ADC4FCF
:101070003E85EF8030192A86AE8689470D47854523
:101080007945EF302038AD67138687EE89450145F5
:10109000EF30401B9387818A9C4F3E85EF809016EE
:1010A0002A86AE8689470D4789457945EF308035D8
:1010B000AD67138647EE8D450145EF30A018938745
:1010C000818A9C533E85EF80F0132A86AE8689473D
:1010D0000D478D457945EF30E032AD671386C7EE99
:1010E00091450145EF3000168397A1838D463E86DA
:1010F00091451305C003EF304022AD67138647EFDB
:101100009D450145EF30001483A7418485463E8606
:101110009D451305C003EF3040206F00806B83A70F
:10112000418485463E869D451305C003EF30E01E91
:10113000839721828D463E8699451305B004EF3092
:10114000C01D839741828D463E8695451305A005B7
:10115000EF30A01C839741823E87839721823E8691
:10116000BA85AD67138507F0EF900019B707002027
:1011700003A7C70B9307900F63E6E7007947239D0A
:10118000E18229A013070005239DE18283A7418402
:101190001547636FF76213972700AD67938707FBC7
:1011A000BA979C4382879387C187DC533E85EF8043
:1011B000E072AA8493870190DC533E85EF80007231
:1011C000232CA4F89387818ADC533E85EF8000713D
:1011D000232AA4F89387418DDC533E85EF8000706D
:1011E000AA87BE86032644F9832584F92685EF5015
:1011F000C04A03C761828547631DF75C83972182DC
:101200003E85EF80C0732A871386C192BA85130585
:101210000000EF50A06D8397A1833E85EF703035BD
:10122000232CA4F8232EB4F89387C192DC533E8577
:10123000EF80407DAA872E883E85C285EF50306DB5
:10124000AA872E883E86C286032584F98325C4F9A1
:10125000EF708037AA872E883E85C285EF70B02A4E
:10126000AA871397070141872394E1828397A1837B
:101270003E85EF70D02F232CA4F8232EB4F893874B
:10128000C192DC533E85EF80E077AA872E883E85A9
:10129000C285EF50D067AA872E883E86C286032576
:1012A00084F98325C4F9EF50907BAA872E883E8568
:1012B000C285EF705025AA871397070141872395B0
:1012C000E1828397A1833E85EF70702A232CA4F8D6
:1012D000232EB4F89387C192DC533E85EF80807251
:1012E000AA872E883E85C285EF507062AA872E8815
:1012F0003E86C286032584F98325C4F9EF70C02C8D
:10130000AA872E883E85C285EF70F01FAA871397A3
:10131000070141872396E1828397A1833E85EF7081
:101320001025232CA4F8232EB4F89387C192DC5304
:101330003E85EF80206DAA872E883E85C285EF50BE
:10134000105DAA872E883E86C286032584F98325F0
:10135000C4F9EF50D070AA872E883E85C285EF7001
:10136000901AAA871397070141872397E182039771
:101370008182839601821386C187B6853A85EF50B4
:1013800060450397A1828396E18113860190B6851B
:101390003A85EF5020440397C1828396A18113863A
:1013A000818AB6853A85EF50E0420397E1828396C1
:1013B000C1811386418DB6853A85EF50A0412383C4
:1013C000018201A98146014681450145EF50E02C8B
:1013D00003A7C1858967938707F43357F7029307FB
:1013E000401FB307F7023E8981494A85CE85EF4009
:1013F00050389306406A1306C0959305406A13055A
:10140000C095EF50802903A7C1858967938707F4AA
:101410003357F7029307C017B307F7023E8A814A92
:101420005285D685EF40F03481460146814501451D
:10143000EF50A02603A7C1858967938707F4335728
:10144000F70293074006B307F7023E8B814B5A859C
:10145000DE85EF401032EFF0AF8BB7070020054775
:10146000238CE70A23800184094723A2E18495A6FF
:101470009387C187DC533E85EF804046AA849387DB
:101480000190DC533E85EF806045232CA4F89387C0
:10149000818ADC533E85EF806044232AA4F8938739
:1014A000418DDC533E85EF806043AA87BE860326CC
:1014B00044F9832584F92685EF50201E83C71185C2
:1014C00093F7F70F95C7A388018489679385874BA6
:1014D000B70700201385C72AEF50F002EF50100B1A
:1014E000AA87A30EF4FA8347D4FB3E85EFF02FCDF5
:1014F00003C761828547631EF72C839721823E854F
:10150000EF80E0432A871386C192BA851305000055
:10151000EF50C03D8317E4FB3E85EF8040422A87B1
:101520009387C192DC53BE853A85EF80A002AA87DB
:101530003E85EF80A03AAA8713970701418723943D
:10154000E1828317E4FBB307F0403E85EF80203F44
:101550002A879387C192DC53BE853A85EF70D00EFF
:10156000AA873E85EF808037AA87139707014187B6
:101570002395E1828317E4FBB307F0403E85EF80BB
:10158000003C2A879387C192DC53BE853A85EF7071
:10159000707CAA873E85EF806034AA871397070185
:1015A00041872396E1828317E4FB3E85EF80203953
:1015B0002A879387C192DC53BE853A85EF70D008A5
:1015C000AA873E85EF808031AA871397070141875C
:1015D0002397E18203978182839601821386C187D4
:1015E000B6853A85EF50001F0397A1828396E1816B
:1015F00013860190B6853A85EF50C01D0397C182CE
:101600008396A1811386818AB6853A85EF50801C26
:101610000397E1828396C1811386418DB6853A8511
:10162000EF50401B238301826DA281460146814514
:101630000145EF50800603A7C1858967938707F4AA
:101640003357F70293074006B307F7023E8C814CED
:101650006285E685EF40F0119306C0951306406A57
:101660009305C0951305406AEF50200303A7C18579
:101670008967938707F43357F7029307C017B307B7
:10168000F7023E8D814D6A85EE85EF40900E8146D2
:10169000014681450145EF50400003A7C185896798
:1016A000938707F43357F70293074006B307F7020F
:1016B0002324F4FA232604FA032584FA8325C4FAA2
:1016C000EF40300BEFE0DFE405472380E184B7070C
:1016D000002023AE070A0547239CE18223A2018450
:1016E000CDA803A7C1858967938707F43357F7020D
:1016F0009307401FB307F7022320F4FA232204FACA
:10170000032504FA832544FAEF40B006154723A2C7
:10171000E184C1A09387C187DC533E85EF80001C24
:10172000AA8493870190DC533E85EF80201B232CF5
:10173000A4F89387818ADC533E85EF80201A232A00
:10174000A4F89387418DDC533E85EF802019AA874A
:10175000BE86032644F9832584F92685EF40F0737D
:1017600003C7618285476316F70623940182239598
:1017700001822396018223970182039781828396B7
:1017800001821386C187B6853A85EF50A00403977E
:10179000A1828396E18113860190B6853A85EF5048
:1017A00060030397C1828396A1811386818AB685DF
:1017B0003A85EF5020020397E1828396C181138618
:1017C000418DB6853A85EF50E0002383018211A058
:1017D000010003C771828547E303F7946FF07F82AE
:1017E00097F1FF1F9381810D174100201301818123
:1017F00017A50000130545E397F5FF1F9385858026
:101800001386818163FAC5008322050023A0550059
:1018100011059105E3EAC5FE138581819715002026
:10182000938585076377B500232005001105E36DD7
:10183000B5FE9302800873A0023097E2FFFF938207
:10184000E27F93E2120073905230EF40305097F2F3
:10185000FFFF9382C267739012347300203001112E
:1018600022CE00102326A4FE8327C4FE9843C1671E
:10187000F9177D8F8327C4FE98C38327C4FE23A056
:1018800007008327C4FE23A207008327C4FE23A4E6
:1018900007008327C4FE23A607000327C4FEB7075B
:1018A0000240A107631BF700B7070240D843B70700
:1018B00002401367F700D8C375A20327C4FEB70719
:1018C0000240F107631BF700B7070240D843B70790
:1018D00002401367070FD8C371A20327C4FEB707DE
:1018E000024093870703631DF700B7070240D44304
:1018F000B70702400567130707F0558FD8C39DA2AD
:101900000327C4FEB707024093874704631BF70011
:10191000B7070240D443B70702403D67558FD8C38D
:1019200091A20327C4FEB707024093878705631C73
:10193000F700B7070240D443B707024037070F004C
:10194000558FD8C305A20327C4FEB707024093876B
:10195000C706631CF700B7070240D443B70702402D
:101960003707F000558FD8C3F5A80327C4FEB70783
:10197000024093870708631CF700B7070240D4436F
:10198000B70702403707000F558FD8C3E1A80327D8
:10199000C4FEB707024093878740631FF700B7076D
:1019A000024093870740D843B70702409387074018
:1019B0001367F700D8C37DA00327C4FEB707024012
:1019C0009387C741631FF700B7070240938707401B
:1019D000D843B7070240938707401367070FD8C360
:1019E00051A00327C4FEB707024093870743631142
:1019F000F702B707024093870740D443B707024076
:101A0000938707400567130707F0558FD8C399A838
:101A10000327C4FEB707024093874744631FF700BC
:101A2000B707024093870740D443B7070240938724
:101A300007403D67558FD8C335A00327C4FEB707BD
:101A4000024093878745631FF700B70702409387DB
:101A50000740D443B70702409387074037070F007A
:101A6000558FD8C30100724405618280797122D6F6
:101A70000018232EA4FC232CB4FC232604FE832769
:101A8000C4FD9C432326F4FE0327C4FEE177BD0773
:101A9000F98F2326F4FE832784FD9847832784FD4E
:101AA0009C535D8F832784FD9C4B5D8F832784FD32
:101AB000DC4B5D8F832784FD9C4F5D8F832784FDE6
:101AC000DC4F5D8F832784FDDC535D8F832784FD8E
:101AD0009C57D98F0327C4FED98F2326F4FE832772
:101AE000C4FD0327C4FE98C3832784FDD8478327FA
:101AF000C4FDD8C3832784FD98438327C4FD98C7BA
:101B0000832784FDD8438327C4FDD8C701003254FE
:101B100045618280011122CE00102326A4FE2324D9
:101B2000B4FE832784FE91CB8327C4FE9C4313E736
:101B300017008327C4FE98C311A88327C4FE9843C7
:101B4000C167F9177D8F8327C4FE98C301007244D3
:101B500005618280011122CE00102326A4FE2324D9
:101B6000B4FE2322C4FE832744FE99CB8327C4FE00
:101B70009843832784FE5D8F8327C4FE98C321A8E2
:101B80008327C4FE9843832784FE93C7F7FF7D8F86
:101B90008327C4FE98C30100724405618280797175
:101BA00022D60018232EA4FC232604FE232404FEA0
:101BB0000327C4FDB7070010F98F89CBB707024090
:101BC000938707409C432324F4FE31A0B7070240CB
:101BD0009C432324F4FE032784FE8327C4FDF98F4E
:101BE00089C785472326F4FE19A0232604FE8327F0
:101BF000C4FE3E85325445618280011122CE001020
:101C00002326A4FE0327C4FEB7070010F98F89CB53
:101C1000B7070240938707400327C4FED8C331A00B
:101C2000B70702400327C4FED8C301007244056110
:101C30008280797122D60018232EA4FC232604FE6C
:101C4000B7070140938707402326F4FE8327C4FD8E
:101C5000DC4763800712B70701409387074094432E
:101C60008327C4FD9C4313C7F7FFB7070140938741
:101C70000740758F98C3B707014093870740D44347
:101C80008327C4FD9C4313C7F7FFB7070140938721
:101C90000740758FD8C38327C4FDDC430327C4FEE8
:101CA000BA972326F4FE8327C4FE94438327C4FDFA
:101CB00098438327C4FE558F98C3B7070140938785
:101CC000074094478327C4FD9C4313C7F7FFB7071A
:101CD000014093870740758F98C7B70701409387E6
:101CE0000740D4478327C4FD9C4313C7F7FFB707BA
:101CF000014093870740758FD8C78327C4FD984755
:101D0000C147631FF702B707014093870740944715
:101D10008327C4FD9843B707014093870740558F39
:101D200098C7B707014093870740D4478327C4FD6E
:101D30009843B707014093870740558FD8C7B1A88C
:101D4000B7070140938707402326F4FE8327C4FD8D
:101D50009C470327C4FEBA972326F4FE8327C4FEBC
:101D600094438327C4FD98438327C4FE558F98C3AB
:101D70002DA08327C4FDDC430327C4FEBA97232686
:101D8000F4FE8327C4FE94438327C4FD9C4313C7FA
:101D9000F7FF8327C4FE758F98C301003254456155
:101DA0008280797122D60018232EA4FC232604FEFB
:101DB000232404FEB7070140938707409C43032771
:101DC000C4FDF98F2324F4FEB70701409387074031
:101DD000D84B8327C4FDF98F81CB832784FE89C725
:101DE00085472326F4FE19A0232604FE8327C4FE7C
:101DF0003E85325445618280011122CE0010232697
:101E0000A4FEB7070140938707400327C4FED8CB41
:101E10000100724405618280397122DE8000232630
:101E2000A4FC2324B4FC232604FE232004FE232444
:101E300004FE232E04FC232204FE232C04FC83270F
:101E400084FC9C47BD8B2326F4FE832784FC9C479F
:101E5000C18B89CB832784FCDC430327C4FED98F45
:101E60002326F4FE832784FC83D7070093F7F70F1C
:101E7000F1CF8327C4FC9C432322F4FE232404FED9
:101E800065A8832784FE0547B317F700232EF4FCCB
:101E9000832784FC83D707003E878327C4FDF98FFF
:101EA0002320F4FE032704FE8327C4FD6311F708F3
:101EB000832784FE8A07232EF4FC8327C4FD3D4735
:101EC000B317F700232CF4FC832784FD93C7F7FF97
:101ED000032744FEF98F2322F4FE8327C4FD032742
:101EE000C4FEB317F700032744FED98F2322F4FE64
:101EF000832784FC984793078002631BF70083279E
:101F000084FE05473317F7008327C4FCD8CB05A010
:101F1000832784FC984793078004631AF70083277C
:101F200084FE05473317F7008327C4FC98CB83272B
:101F300084FE85072324F4FE032784FE9D47E3F2F5
:101F4000E7F48327C4FC032744FE98C3832784FC5B
:101F500003D707009307F00F63F1E70E8327C4FC54
:101F6000DC432322F4FE232404FE75A8832784FE89
:101F7000A1070547B317F700232EF4FC832784FC41
:101F800083D707003E878327C4FDF98F2320F4FE03
:101F9000032704FE8327C4FD6312F708832784FE0A
:101FA0008A07232EF4FC8327C4FD3D47B317F700AF
:101FB000232CF4FC832784FD93C7F7FF032744FEFB
:101FC000F98F2322F4FE8327C4FD0327C4FEB31731
:101FD000F700032744FED98F2322F4FE832784FCD5
:101FE000984793078002631BF700832784FEA107AD
:101FF00005473317F7008327C4FCD8CB832784FC1D
:10200000984793078004631BF700832784FEA1078A
:1020100005473317F7008327C4FC98CB832784FE3A
:1020200085072324F4FE032784FE9D47E3F0E7F4AD
:102030008327C4FC032744FED8C3010072542161E6
:102040008280011122CE00102326A4FEAE87232217
:10205000C4FE2315F4FE832744FE99C70357A4FE4C
:102060008327C4FE98CB31A00357A4FE8327C4FE68
:10207000D8CB0100724405618280797122D60018A4
:10208000232EA4FC232CB4FC232404FE232204FED0
:10209000232604FE232004FE8327C4FD63D8070003
:1020A000B7070140DC4F2326F4FE31A0B7070140FB
:1020B000DC432326F4FE8327C4FDC183BD8B23208C
:1020C000F4FE0327C4FDC167FD17F98F2324F4FE36
:1020D0000327C4FDB70730007D8FB70730006315B5
:1020E000F7020327C4FEB70700F1FD17F98F232677
:1020F000F4FEB7070140D443B7070140370700F1AA
:102100007D17758FD8C3ADA00327C4FDB707100096
:10211000F98F8DCB832704FE0D47B317F7002322D9
:10212000F4FE832744FE93C7F7FF0327C4FEF98F0D
:102130002326F4FE0327C4FEB707000FD98F2326FA
:10214000F4FE3DA08327C4FDD5839207032784FEB8
:10215000B317F70093C7F7FF0327C4FEF98F2326B1
:10216000F4FE0327C4FEB707000FD98F2326F4FE21
:10217000832784FD91CF8327C4FDD583920703274E
:1021800084FEB317F7000327C4FED98F2326F4FE7D
:102190008327C4FD63D80700B70701400327C4FEA7
:1021A000D8CF31A0B70701400327C4FED8C3010030
:1021B000325445618280797122D60018AA872E8711
:1021C000A30FF4FCBA87230FF4FC232604FE8347F5
:1021D000E4FD8D8B8A073D47B317F7002326F4FEF5
:1021E000370701408347E4FD898393F7F70F8A0798
:1021F000BA9798478327C4FE93C7F7FFB7060140F5
:102200000346E4FD09821376F60F7D8F93172600AF
:10221000B69798C7370701408347E4FD898393F752
:10222000F70F8A07BA9798478346F4FD8347E4FD82
:102230008D8B8A07B397F600B70601400346E4FD8D
:1022400009821376F60F5D8F93172600B69798C70D
:102250000100325445618280011122CE00102326F4
:10226000A4FE8327C4FEFD8B0547B316F70037E7AE
:1022700000E08327C4FE9583938707048A07BA97F3
:1022800094C30100724405618280011122CE0010C6
:102290002326A4FE8327C4FEFD8B0547B316F70053
:1022A00037E700E08327C4FE9583938707068A07F4
:1022B000BA9794C30100724405618280011122CE55
:1022C00000102326A4FEAE87A305F4FE37E700E046
:1022D0008327C4FEBA970347B4FE2380E74001007A
:1022E000724405618280011106CE22CC00102326A3
:1022F000A4FEB7E700E0BC47898B95C38327C4FEE3
:1023000083C707003E878327C4FE83C72700920741
:1023100093F7F70FBE853A85EFF05FFAA5A0B7E710
:1023200000E0BC47898BB9EF8327C4FE03C71700C1
:1023300085476319F7028327C4FE83C707003E87DA
:102340008327C4FE83C727009207E207E18793E74C
:1023500007F8E207E18793F7F70FBE853A85EFF0BC
:10236000FFF50DA08327C4FE83C707003E878327A0
:10237000C4FE83C72700920793F7F70FBE853A85FF
:10238000EFF0DFF38327C4FEDC4389CB8327C4FE51
:1023900083C707003E85EFF03FEC01A88327C4FE0A
:1023A00083C707003E85EFF05FEE0100F240624414
:1023B00005618280797122D60018232EA4FC232681
:1023C00004FE232404FE232204FE232004FEB71768
:1023D0000240DC43B18B2326F4FE0327C4FE914761
:1023E0006302F7020327C4FEA1476305F7028327B0
:1023F000C4FEC5E78327C4FD37177A0013070720FB
:1024000098C365A08327C4FD37177A0013070720F8
:1024100098C361A8B7170240D843B7073C00F98FAB
:102420002324F4FEB7170240D843C167F98F232253
:10243000F4FE832784FEC98389072324F4FE8327BF
:1024400044FE89EF032784FEB7173D00938707906A
:102450003307F7028327C4FD98C381A8B71702404A
:10246000D843B7070200F98F89CF032784FEB71737
:102470003D00938707903307F7028327C4FD98C375
:102480002DA0032784FEB7177A0093870720330710
:10249000F7028327C4FD98C309A88327C4FD371713
:1024A0007A001307072098C30100B7170240DC43E6
:1024B00093F7070F2326F4FE8327C4FE9183232678
:1024C000F4FEB7070020138707008327C4FEBA97DE
:1024D00083C7070093F7F70F2320F4FE8327C4FD7B
:1024E0009843832704FE3357F7008327C4FDD8C3DE
:1024F000B7170240DC4393F707702326F4FE8327C7
:10250000C4FEA1832326F4FEB7070020138707002B
:102510008327C4FEBA9783C7070093F7F70F2320DA
:10252000F4FE8327C4FDD843832704FE3357F70006
:102530008327C4FD98C7B7170240D8439167938794
:102540000780F98F2326F4FE8327C4FEAD8323265C
:10255000F4FEB7070020138707008327C4FEBA974D
:1025600083C7070093F7F70F2320F4FE8327C4FDEA
:10257000D843832704FE3357F7008327C4FDD8C709
:10258000B7170240D843B167F98F2326F4FE83279B
:10259000C4FEB9832326F4FE138781808327C4FEFB
:1025A000BA9783C7070093F7F70F2320F4FE83271A
:1025B000C4FDD847832704FE3357F7028327C4FDA1
:1025C00098CB0100325445618280011122CE001067
:1025D0002326A4FE2324B4FE832784FE99CBB717B9
:1025E0000240D44BB71702400327C4FE558FD8CB07
:1025F00021A8B7170240D44B8327C4FE13C7F7FFA7
:10260000B7170240758FD8CB0100724405618280F4
:10261000011122CE00102326A4FE2324B4FE83271A
:1026200084FE99CBB7170240944FB7170240032797
:10263000C4FE558F98CF21A8B7170240944F832727
:10264000C4FE13C7F7FFB7170240758F98CF01007C
:10265000724405618280011122CE00102326A4FE5F
:102660002324B4FE832784FE99CBB7170240D44FAE
:10267000B71702400327C4FE558FD8CF21A8B7173C
:102680000240D44F8327C4FE13C7F7FFB717024099
:10269000758FD8CF0100724405618280797122D68E
:1026A0000018232EA4FC232CB4FC231704FE83273C
:1026B000C4FD83D707002317F4FE0327C4FDB737F3
:1026C0000140938707C06308F7020327C4FDB707DB
:1026D00000406302F7020327C4FDB7070040938759
:1026E0000740630AF7000327C4FDB717004093872C
:1026F00007806311F7028357E4FE93F7F7F8231777
:10270000F4FE832784FD03D727008357E4FED98F87
:102710002317F4FE8357E4FE93F7F7CF2317F4FE55
:10272000832784FD03D767008357E4FED98F2317DF
:10273000F4FE8327C4FD0357E4FE2390E7008327BC
:1027400084FD03D747008327C4FD2396E702832730
:1027500084FD03D707008327C4FD2394E7020327E2
:10276000C4FDB7370140938707C0631DF700832777
:1027700084FD83C787001397070141838327C4FD26
:102780002398E7028327C4FD0547239AE700010049
:10279000325445618280797122D60018232EA4FC20
:1027A000232CB4FC231504FE231704FE231604FE79
:1027B0008327C4FD83D70702C207C183F99B139700
:1027C000070141838327C4FD2390E7028327C4FDCB
:1027D00083D707022317F4FE8327C4FD83D747005E
:1027E0002316F4FE8327C4FD83D787012315F4FE47
:1027F0008357A4FE93F7F7F82315F4FE8357A4FE3E
:10280000F19B2315F4FE832784FD03D7070083572C
:10281000A4FED98F2315F4FE8357E4FEF59B2317FE
:10282000F4FE832784FD03D787008357E4FED98F06
:102830002317F4FE832784FD03D727008357E4FE84
:10284000D98F2317F4FE0327C4FDB73701409387C0
:1028500007C0631CF7068357E4FEDD9B2317F4FED5
:10286000832784FD03D7A7008357E4FED98F23175E
:10287000F4FE8357E4FEED9B2317F4FE832784FDCB
:1028800003D747008357E4FED98F2317F4FE8357FD
:10289000C4FE93F7F7EF2316F4FE8357C4FE93F7B5
:1028A000F7DF2316F4FE832784FD03D7C700835781
:1028B000C4FED98F2316F4FE832784FD03D7E700D7
:1028C0008357C4FED98F2316F4FE8327C4FD035714
:1028D000C4FE2392E7008327C4FD0357A4FE239C74
:1028E000E700832784FD03D767008327C4FD239A6D
:1028F000E7028327C4FD0357E4FE2390E7020100AB
:10290000325445618280797122D60018232EA4FCAE
:10291000232CB4FC231504FE231704FE231604FE07
:102920008327C4FD83D70702C207C183BD9B1397CA
:10293000070141838327C4FD2390E7028327C4FD59
:1029400083D707022317F4FE8327C4FD83D74700EC
:102950002316F4FE8327C4FD83D787012315F4FED5
:102960000357A4FEE577FD17F98F2315F4FE83576F
:10297000A4FE93F7F7CF2315F4FE832784FD83D7B6
:102980000700A2071397070141838357A4FED98F3D
:102990002315F4FE8357E4FE93F7F7FD2317F4FEA7
:1029A000832784FD83D7870092071397070141830C
:1029B0008357E4FED98F2317F4FE832784FD83D742
:1029C000270092071397070141838357E4FED98FAD
:1029D0002317F4FE0327C4FDB7370140938707C0D0
:1029E0006310F70A8357E4FE93F7F7F72317F4FE13
:1029F000832784FD83D7A70092071397070141839C
:102A00008357E4FED98F2317F4FE8357E4FE93F730
:102A1000F7FB2317F4FE832784FD83D74700920733
:102A20001397070141838357E4FED98F2317F4FEE0
:102A30008357C4FE93F7F7BF2316F4FE0357C4FE73
:102A4000FD779387F77FF98F2316F4FE832784FDA4
:102A500083D7C7008A071397070141838357C4FEB2
:102A6000D98F2316F4FE832784FD83D7E7008A07D6
:102A70001397070141838357C4FED98F2316F4FEB1
:102A80008327C4FD0357C4FE2392E7008327C4FDB8
:102A90000357A4FE239CE700832784FD03D7670028
:102AA0008327C4FD239CE7028327C4FD0357E4FE6C
:102AB0002390E7020100325445618280797122D669
:102AC0000018232EA4FC232CB4FC231504FE23178A
:102AD00004FE231604FE8327C4FD83D70702C20722
:102AE000C18393F7F7EF1397070141838327C4FD51
:102AF0002390E7028327C4FD83D707022317F4FE40
:102B00008327C4FD83D747002316F4FE8327C4FD23
:102B100083D7C7012315F4FE8357A4FE93F7F7F874
:102B20002315F4FE8357A4FEF19B2315F4FE83279F
:102B300084FD03D707008357A4FED98F2315F4FE25
:102B40008357E4FE93F7F7DF2317F4FE832784FD12
:102B500083D78700A2071397070141838357E4FEB9
:102B6000D98F2317F4FE832784FD83D72700A2077C
:102B70001397070141838357E4FED98F2317F4FE8F
:102B80000327C4FDB7370140938707C06312F70AD4
:102B90000357E4FEFD779387F77FF98F2317F4FE41
:102BA000832784FD83D7A700A207139707014183DA
:102BB0008357E4FED98F2317F4FE8357E4FE93F77F
:102BC000F7BF2317F4FE832784FD83D74700A207AE
:102BD0001397070141838357E4FED98F2317F4FE2F
:102BE0000357C4FEFD77FD17F98F2316F4FE035734
:102BF000C4FEF977FD17F98F2316F4FE832784FDB1
:102C000083D7C70092071397070141838357C4FEF8
:102C1000D98F2316F4FE832784FD83D7E70092071C
:102C20001397070141838357C4FED98F2316F4FEFF
:102C30008327C4FD0357C4FE2392E7008327C4FD06
:102C40000357A4FE239EE700832784FD03D7670074
:102C50008327C4FD239EE7028327C4FD0357E4FEB8
:102C60002390E7020100325445618280797122D6B7
:102C70000018232EA4FC232CB4FC231604FE2315D9
:102C800004FE231704FE8327C4FD83D7070213978E
:102C900007014183FD77FD17F98F139707014183E2
:102CA0008327C4FD2390E7028327C4FD83D707024F
:102CB0002315F4FE8327C4FD83D747002317F4FEB2
:102CC0008327C4FD83D7C7012316F4FE0357C4FE30
:102CD000E577FD17F98F2316F4FE8357C4FE93F7AB
:102CE000F7CF2316F4FE832784FD83D70700A207BE
:102CF0001397070141838357C4FED98F2316F4FE2F
:102D00000357A4FEF977FD17F98F2315F4FE8327E7
:102D100084FD83D78700B207139707014183835748
:102D2000A4FED98F2315F4FE832784FD83D72700C3
:102D3000B2071397070141838357A4FED98F231548
:102D4000F4FE0327C4FDB7370140938707C063161D
:102D5000F7020357E4FEF177FD17F98F2317F4FE0E
:102D6000832784FD83D7C7009A0713970701418300
:102D70008357E4FED98F2317F4FE8327C4FD03573E
:102D8000E4FE2392E7008327C4FD0357C4FE239E7D
:102D9000E700832784FD03D767008327C4FD2390C2
:102DA000E7048327C4FD0357A4FE2390E702010034
:102DB000325445618280011122CE00102326A4FEE8
:102DC0008327C4FE7D572392E7008327C4FE239008
:102DD00007008327C4FE239307008327C4FE2391A3
:102DE00007008327C4FE23840700010072440561A5
:102DF0008280011122CE00102326A4FE2324B4FEDB
:102E0000832784FE8DC38327C4FE83D70700C207B0
:102E1000C18393E717001397070141838327C4FEFB
:102E20002390E70039A88327C4FE83D70700C20791
:102E3000C183F99B1397070141838327C4FE239025
:102E4000E7000100724405618280011122CE00106A
:102E50002326A4FE2324B4FE832784FE95C3832760
:102E6000C4FE83D74704139707014183E177D98FC5
:102E70001397070141838327C4FE2392E70415A01B
:102E80008327C4FE83D74704139707014183A167B3
:102E9000FD17F98F1397070141838327C4FE2392FF
:102EA000E7040100724405618280011122CE001006
:102EB0002326A4FEAE872322C4FE2315F4FE832717
:102EC00044FE9DC38327C4FE83D7C7001397070121
:102ED00041838357A4FED98F13970701418383272A
:102EE000C4FE2396E70035A08327C4FE83D7C7001E
:102EF0001397070141838357A4FE93C7F7FFC207C7
:102F0000C183F98F1397070141838327C4FE23965A
:102F1000E7000100724405618280797106D622D4EF
:102F20000018232EA4FCAE873687231DF4FCB2873D
:102F3000231CF4FCBA87231BF4FC231704FE8356DE
:102F400064FD035784FD8357A4FD3A86BE8503259F
:102F5000C4FD89288327C4FD83D787002317F4FE87
:102F60008357E4FEE19B2317F4FE8357E4FE93E7C7
:102F700077002317F4FE8357E4FE93F7F7F823173F
:102F8000F4FE8357E4FE93E707072317F4FE832735
:102F9000C4FD0357E4FE2394E7000100B25022541D
:102FA00045618280797122D60018232EA4FCAE8759
:102FB0003687231DF4FCB287231CF4FCBA87231B3D
:102FC000F4FC231704FE8327C4FD83D7870023174F
:102FD000F4FE8357E4FE93F7F70F2317F4FE8357AD
:102FE00064FDA207139707014183835784FDD98F9E
:102FF0001397070141838357A4FDD98F13970701C6
:1030000041838357E4FED98F2317F4FE8327C4FD41
:103010000357E4FE2394E7000100325445618280A7
:10302000797122D60018232EA4FCAE87231DF4FC50
:10303000231704FE8327C4FD83D787002317F4FEDC
:103040008357E4FE93F7F7F82317F4FE0357E4FEE3
:103050008357A4FDD98F2317F4FE8327C4FD03579C
:10306000E4FE2394E70001003254456182807971C7
:1030700022D60018232EA4FCAE873687231DF4FC2D
:10308000B287231CF4FCBA87231BF4FC231704FE2D
:10309000231604FE231504FE8327C4FD83D787006F
:1030A0002317F4FE8327C4FD83D787012316F4FE7C
:1030B0008327C4FD83D707022315F4FE8357E4FE5C
:1030C000E19B2317F4FE0357E4FE8357A4FDD98F39
:1030D0002317F4FE8357C4FE93F7C7CF2316F4FEDD
:1030E0008357C4FE93E717102316F4FE8357A4FEFC
:1030F00093F7D7FD2315F4FE835764FD92071397CA
:1031000007014183835784FDD98F139707014183BA
:103110008357A4FED98F2315F4FE8327C4FD0357DC
:10312000E4FE2394E7008327C4FD0357C4FE239CD9
:10313000E7008327C4FD0357A4FE2390E7020100A4
:10314000325445618280797122D60018232EA4FC66
:10315000AE87231DF4FC231704FE8327C4FD83D709
:1031600087012317F4FE8357E4FEDD9B2317F4FE4B
:103170000357E4FE8357A4FDD98F2317F4FE83275A
:10318000C4FD0357E4FE239CE7000100325445616F
:103190008280797122D60018232EA4FCAE87231DCD
:1031A000F4FC231704FE8327C4FD83D7870123176C
:1031B000F4FE0357E4FEFD779387F77FF98F23171B
:1031C000F4FE8357A4FDA207139707014183835799
:1031D000E4FED98F2317F4FE8327C4FD0357E4FED2
:1031E000239CE7000100325445618280797122D628
:1031F0000018232EA4FCAE87231DF4FC231704FE25
:103200008327C4FD83D7C7012317F4FE8357E4FE49
:10321000DD9B2317F4FE0357E4FE8357A4FDD98FEB
:103220002317F4FE8327C4FD0357E4FE239EE70023
:103230000100325445618280797122D60018232E14
:10324000A4FCAE87231DF4FC231704FE8327C4FDD2
:1032500083D7C7012317F4FE0357E4FEFD77938756
:10326000F77FF98F2317F4FE8357A4FDA207139766
:10327000070141838357E4FED98F2317F4FE832788
:10328000C4FD0357E4FE239EE7000100325445616C
:103290008280797122D60018232EA4FCAE87231DCC
:1032A000F4FC231704FE8327C4FD83D7870123176B
:1032B000F4FE8357E4FEED9B2317F4FE0357E4FE70
:1032C0008357A4FDD98F2317F4FE8327C4FD03572A
:1032D000E4FE239CE700010032544561828079714D
:1032E00022D60018232EA4FCAE87231DF4FC23173E
:1032F00004FE8327C4FD83D787012317F4FE835779
:10330000E4FE93F7F7BF2317F4FE8357A4FDA2074B
:103310001397070141838357E4FED98F2317F4FEE7
:103320008327C4FD0357E4FE239CE70001003254C9
:1033300045618280797122D60018232EA4FCAE87C5
:10334000231DF4FC231704FE8327C4FD83D7C70184
:103350002317F4FE8357E4FEED9B2317F4FE035777
:10336000E4FE8357A4FDD98F2317F4FE8327C4FD01
:103370000357E4FE239EE70001003254456182803A
:10338000797122D60018232EA4FCAE87231DF4FCED
:10339000231704FE8327C4FD83D7C7012317F4FE38
:1033A0008357E4FE93F7F7BF2317F4FE8357A4FD7A
:1033B000A2071397070141838357E4FED98F231790
:1033C000F4FE8327C4FD0357E4FE239EE7000100BB
:1033D000325445618280011122CE00102326A4FEC2
:1033E000AE872315F4FE8327C4FE83D78700C20768
:1033F000C183E19B1397070141838327C4FE239474
:10340000E7008327C4FE83D7870013970701418312
:103410008357A4FED98F1397070141838327C4FEE6
:103420002394E7000100724405618280011122CEDD
:1034300000102326A4FEAE872315F4FE8327C4FEC6
:1034400083D78700C207C18393F7F7F71397070164
:1034500041838327C4FE2394E7008327C4FE83D7D8
:1034600087001397070141838357A4FED98F1397D1
:10347000070141838327C4FE2394E70001007244BF
:1034800005618280797122D60018232EA4FCAE87B4
:10349000231DF4FC232604FE231504FE231404FE3E
:1034A0008327C4FD83D707011397070141838357FF
:1034B000A4FDF98F2315F4FE8327C4FD83D7C7002D
:1034C0001397070141838357A4FDF98F2314F4FE5A
:1034D0008357A4FE81CB835784FE89C78547232663
:1034E000F4FE19A0232604FE8327C4FE3E85325431
:1034F00045618280011122CE00102326A4FEAE87F2
:103500002315F4FE8357A4FE93C7F7FF1397070113
:1035100041838327C4FE2398E700010072440561BC
:1035200082805D7186C6A2C48008232EA4FA232C53
:10353000B4FA232604FE232404FE232204FE2320BF
:1035400004FE232E04FC8327C4FB232EF4FC8327D4
:10355000C4FB83D70701C207C1832326F4FE0327D8
:10356000C4FEB567FD17F98F2326F4FE832784FB7D
:1035700083D767003E878327C4FED98F2326F4FEB6
:103580008327C4FE1397070141838327C4FB239835
:10359000E7008327C4FB83D7C700C207C183232664
:1035A000F4FE0327C4FEBD679387379FF98F232658
:1035B000F4FE832784FB03D74700832784FB83D74C
:1035C0008700D98F139707014183832784FB83D713
:1035D000A700D98FC207C1833E878327C4FED98F36
:1035E0002326F4FE8327C4FE139707014183832714
:1035F000C4FB2396E7008327C4FB83D74701C20798
:10360000C1832326F4FE0327C4FEC1679387F7CF47
:10361000F98F2326F4FE832784FB83D7C7003E87D8
:103620008327C4FED98F2326F4FE8327C4FE139775
:10363000070141838327C4FB239AE700930784FC97
:103640003E85EFE03FD70327C4FDB747014093878E
:1036500007806317F700832744FD2324F4FE29A085
:10366000832704FD2324F4FE8327C4FB83D7C700EC
:10367000C207C183C207C18763D20702032784FE42
:10368000BA878607BA978E073E97832784FB9C43A9
:103690008607B357F7022322F4FE05A0032784FE12
:1036A000BA878607BA978E073E97832784FB9C4389
:1036B0008A07B357F7022322F4FE032744FE930739
:1036C0004006B357F70292072326F4FE8327C4FE71
:1036D00013D7470093074006B307F702032744FEBA
:1036E000B307F7402320F4FE8327C4FB83D7C7002A
:1036F000C207C183C207C18763D20702832704FEC2
:103700008E071387270393074006B357F7029D8B55
:103710000327C4FED98F2326F4FE05A0832704FEC9
:1037200092071387270393074006B357F702BD8B11
:103730000327C4FED98F2326F4FE8327C4FE1397E4
:10374000070141838327C4FB2394E7000100B640AF
:10375000264461618280011122CE00102326A4FE3E
:103760002324B4FE832784FE95C38327C4FE83D716
:10377000C7001397070141838967D98F1397070102
:1037800041838327C4FE2396E70015A08327C4FE48
:1037900083D7C700139707014183F977FD17F98F86
:1037A0001397070141838327C4FE2396E700010096
:1037B000724405618280797122D60018232EA4FC00
:1037C000AE87232AC4FC231DF4FC232404FE2322F9
:1037D00004FE232004FE232604FE8327C4FD2326A3
:1037E000F4FE8357A4FD93F7F70F958393F7F70F34
:1037F0002324F4FE8357A4FDFD8B2322F4FE8327AC
:1038000044FE0547B317F7002320F4FE032784FE88
:1038100085476318F7008327C4FEB1072326F4FE0B
:103820000DA0032784FE89476318F7008327C4FE91
:10383000C1072326F4FE31A08327C4FED107232627
:10384000F4FE832744FD99CB8327C4FE944383274A
:10385000C4FE032704FE558F98C321A88327C4FE06
:103860009443832704FE13C7F7FF8327C4FE758F95
:1038700098C30100325445618280011122CE0010AC
:103880002326A4FEAE872315F4FE8357A4FE93F7E8
:10389000F71F1397070141838327C4FE2392E70094
:1038A0000100724405618280011122CE001023269E
:1038B000A4FE8327C4FE83D74700C207C18393F7C2
:1038C000F71FC207C1833E8572440561828079710A
:1038D00022D60018232EA4FCAE87231DF4FC232639
:1038E00004FE8327C4FD83D7070013970701418394
:1038F0008357A4FDF98FC207C18389C78547232653
:10390000F4FE19A0232604FE8327C4FE3E8532540C
:1039100045618280797122D60018232EA4FCAE87DF
:10392000231DF4FC232204FE232604FE232004FE90
:10393000232404FE8357A4FD93F7F70F958393F791
:10394000F70F2320F4FE8357A4FDFD8B2326F4FEFE
:103950008327C4FE0547B317F7002326F4FE032789
:1039600004FE8547631FF7008327C4FD83D7C70084
:10397000C207C1833E878327C4FEF98F2326F4FE46
:103980003DA8032704FE8947631FF7008327C4FD72
:1039900083D70701C207C1833E878327C4FEF98FFF
:1039A0002326F4FE29A88327C4FD83D74701C20735
:1039B000C1833E878327C4FEF98F2326F4FE8357F5
:1039C000A4FDA183C207C1832322F4FE832744FE02
:1039D0000547B317F7002322F4FE8327C4FD83D7DE
:1039E0000700C207C1833E87832744FEF98F232245
:1039F000F4FE8327C4FE81CB832744FE89C7854715
:103A00002324F4FE19A0232404FE832784FE3E858C
:103A1000325445618280797122D60018232EA4FC8D
:103A2000AE87231DF4FC231704FE231604FE8357E0
:103A3000A4FDA1832317F4FE8357E4FE0547B317C3
:103A4000F7002316F4FE8357C4FE93C7F7FF1397BE
:103A5000070141838327C4FD2390E700010032540E
:103A600045618280411122C60008AD679387073700
:103A7000DC4383D7470013970701418383C7F18451
:103A8000BE861377F70F9387C184B6972380E7002C
:103A900083C7F184850713F7F70FA387E18403C772
:103AA000F1848547631AF70003C7C1849307500A5E
:103AB0006304F700A387018403C7F1848D4763176C
:103AC000F700A387018405472388E184010032447D
:103AD00041018280797106D622D44AD24ED0001894
:103AE000232EA4FC232CB4FC23880184231704FE7A
:103AF00069A0930750FA2304F4FE8357E4FE8A0773
:103B0000032784FDBA978397070093F7F70FA30461
:103B1000F4FE8357E4FE8A07032784FDBA97839750
:103B200027002316F4FE8357C4FEA183C207C18376
:103B300093F7F70F2305F4FE8357C4FE93F7F70FAF
:103B4000A305F4FE930784FE1146BE850325C4FD3C
:103B5000EF20E06F03A7C1858967938707F4B35708
:103B6000F70286073E8981494A85CE85EF2060406D
:103B70008357E4FE85072317F4FE0357E4FEA147AD
:103B8000E3F9E7F6010083C7018593F7F70FE5DF57
:103B90002388018401009387C18403C7170093071A
:103BA000F00FE31AF7FE9387C18403C7270093073A
:103BB000F00FE312F7FE0100B2502254125982595D
:103BC00045618280797106D622D40018232EA4FC88
:103BD000232CB4FC231704FE45A0930750FA2304BA
:103BE000F4FEC557A304F4FE8357E4FE8A070327B7
:103BF00084FDBA97839707002316F4FE8357C4FE0B
:103C0000A183C207C18393F7F70F2305F4FE8357FF
:103C1000C4FE93F7F70FA305F4FE930784FE114645
:103C2000BE850325C4FDEF208062010083C70185A6
:103C300093F7F70FE5DF238801849387C18483C757
:103C40001700A20793960701C1869387C18483C793
:103C500027001397070141878357E4FE8A0703264D
:103C600084FDB297558F420741872391E700835720
:103C7000E4FE85072317F4FE0357E4FE9D47E3FEA9
:103C8000E7F40100B250225445618280411106C61A
:103C900022C4000813068004B1450545EF10E05921
:103CA0008546014685455D45EF1040610100B24003
:103CB000224441018280411106C622C40008B14558
:103CC0000145EF10C0200100B24022444101828032
:103CD000011106CE22CC0010930700042307F4FE46
:103CE0009D47A307F4FE0DA00347F4FE8347E4FEBF
:103CF000BA979146014681453E85EF10E0318347F2
:103D0000F4FEFD17A307F4FE8347F4FEF1FF83A73B
:103D100001863E8789679386874B3A86B7170140AD
:103D200093858700B707024013854704EF1080048E
:103D30008546014681457945EF1040580100F24023
:103D4000624405618280411106C622C4000805470D
:103D500023A6E180370700201307C72A23A0E186A6
:103D6000C54641468967938507580545EF20603869
:103D700085450545EF2020520145EF10A0682388B6
:103D80000184B7070020938547030545EFF09FE3C3
:103D900023880184B7070020938507010545EFF0CC
:103DA0007FD323880184B707002093854703054507
:103DB000EFF05FE1EF106060EFF09FF1EFF0BFEF29
:103DC000EFF0DFEC0100B24022444101828041115A
:103DD00022C60008B7070240938747040967130704
:103DE000874BD8C3B7070240938747049843B70768
:103DF0000240938747041367170098C301003244B9
:103E000041018280411122C600080547A388E18450
:103E1000B7070240938747049443B707024093874C
:103E2000470441677917758F98C3010032444101F7
:103E30008280797122D60018AA87A30FF4FCA147CB
:103E4000A307F4FEAD67938707359C473E878967D4
:103E50005CCBAD67938707359C473E8785671CCB56
:103E6000AD6783A707353E878567938707805CCB5F
:103E700089A88307F4FD63DA0700AD6793870735E8
:103E8000DC473E8791471CCB01A8AD679387073578
:103E9000DC473E8791475CCBAD6783A707353E87FC
:103EA0008567938707801CCBAD6783A707353E875F
:103EB0008567938707805CCB8347F4FD8607A30F54
:103EC000F4FC8347F4FE1387F7FFA307E4FED5F362
:103ED000AD67938707359C473E8789671CCB0100F8
:103EE000325445618280797122D60018AA87A30FC7
:103EF000F4FCA147A307F4FEAD67938707359C4701
:103F00003E8789675CCBAD67938707359C473E87C3
:103F100085675CCBAD6783A707353E878567938749
:103F200007805CCB89A88307F4FD63DA0700AD67DF
:103F300093870735DC473E8791471CCB01A8AD67C7
:103F400093870735DC473E8791475CCBAD6783A7F6
:103F500007353E878567938707801CCBAD6783A7AE
:103F600007353E878567938707805CCB8347F4FDE1
:103F70008607A30FF4FC8347F4FE1387F7FFA3071C
:103F8000E4FED5F3AD67938707359C473E87896785
:103F90001CCB0100325445618280411106C622C407
:103FA0004AC24EC0000893060031054685452D459E
:103FB000EF10800693060031014685451305200663
:103FC000EF108005930600310546854513058004F2
:103FD000EF10800493060031054685451305C004A3
:103FE000EF10800393060031054685451305D00484
:103FF000EF108002AD6783A707353E8785679387FB
:1040000007801CCBAD67938707359C473E87930796
:1040100000105CCB03A7C1858967938707F43357EA
:10402000F70293072003B307F7023E8981494A85C7
:10403000CE85EF101074AD67938707359C473E8798
:10404000930700101CCB1305E00AEFF0DFE90145F0
:10405000EFF07FE94145EFF01FE913050004EFF0B1
:104060009FE813051008EFF01FE81305F007EFF0C5
:104070009FE71305100AEFF01FE71305800CEFF020
:104080009FE61305600AEFF01FE61305800AEFF0C4
:104090009FE51305F003EFF01FE51305300DEFF07A
:1040A0009FE40145EFF03FE41305500DEFF0BFE34F
:1040B00013050008EFF03FE31305900DEFF0BFE2AA
:1040C0001305100FEFF03FE21305A00DEFF0BFE175
:1040D0004945EFF05FE11305B00DEFF0DFE01305A8
:1040E0000004EFF05FE013050002EFF0DFDF0945A9
:1040F000EFF07FDF1305D008EFF0FFDE5145EFF062
:104100009FDE1305400AEFF01FDE1305600AEFF093
:104110009FDD1305F00AEFF01FDD01455D288145A5
:10412000014501280100B24022441249824941015F
:104130008280011106CE22CC0010AA872E87A30709
:10414000F4FEBA872307F4FE8307F4FE63DF07005B
:10415000AD67938647F3AD671386071F9305900DF0
:10416000AD67138507F4EF50101C0347E4FE9D472D
:1041700063FFE700AD67938647F7AD671386071FB8
:104180009305A00DAD67138507F4EF50D019834751
:10419000E4FE938707FB93F7F70F3E85EFF0BFD45C
:1041A0008347F4FE918393F7F70F93E7070193F7A3
:1041B000F70F3E85EFF03FD38347F4FEBD8B93F7B7
:1041C000F70F3E85EFF03FD20100F24062440561F7
:1041D0008280797106D622D40018AA87A30FF4FC36
:1041E000A30704FEB1A08347F4FE938707FB93F770
:1041F000F70F3E85EFF03FCF0545EFF0DFCE4145AD
:10420000EFF07FCE230704FE19A88347F4FD3E8517
:10421000EFF03FC28347E4FE85072307F4FE8307E0
:10422000E4FEE3D407FE8347F4FE8507A307F4FE0C
:104230000347F4FE9D47E3F8E7FA0100B250225429
:1042400045618280797106D622D40018AA872E870C
:10425000232CC4FCA30FF4FCBA87230FF4FCA306A1
:1042600004FEA30704FE230704FE59A88347E4FEC7
:10427000032784FDBA978387070093F7F70F811709
:10428000A306F4FE0347F4FD9307E00763F9E70094
:10429000A30F04FC8347E4FD8507230FF4FC0347C9
:1042A000E4FD8347F4FDBA853E85EFF09FE8A30760
:1042B00004FE05A80347D4FE8346F4FE2D66BA87A4
:1042C0008607BA978607130786FCBA97B69783C7FF
:1042D00007003E85EFF0FFB58347F4FE8507A3078F
:1042E000F4FE0347F4FE9547E3F6E7FC8347F4FD4D
:1042F0009907A30FF4FC8347E4FE85072307F4FE28
:104300008347E4FE032784FDBA9783870700B9FF3C
:104310000100B2502254456182805D7186C6A2C4FC
:104320008008AA87232CC4FA3687231FF4FAAE87A5
:10433000231EF4FABA87A30BF4FA034774FBA947C8
:1043400063F5E700A947A30BF4FA834774FB8507DD
:10435000A30BF4FA832784FB63DF07001307C4FC75
:10436000032684FBAD679385C7F83A85E92EAA87B3
:10437000A307F4FEB9A0930700022306F4FC9307F9
:10438000C4FC13871700032684FBAD679385C7F829
:104390003A85552EAA87A307F4FE8347F4FE8507C6
:1043A000A307F4FE39A88347F4FE130704FFBA9766
:1043B00013070002238EE7FC8347F4FE8507A3075B
:1043C000F4FE0347F4FE834774FBE36EF7FC834778
:1043D00074FB130704FFBA97238E07FC8357E4FB93
:1043E00093F7F70F0357C4FB1377F70F9306C4FC3B
:1043F0003686BA853E85EFF0FFE40100B6402644DC
:10440000616182805D7186C6A2C480082328C4FAD7
:10441000232AD4FABA863E87AA87231FF4FAAE87E6
:10442000231EF4FAB687A30DF4FABA87230DF4FA23
:104430000347A4FB994763F5E7009947230DF4FA76
:104440000347B4FBA94763F5E700A947A30DF4FAB6
:1044500001468146032504FB832544FBEF30F03FF2
:10446000AA8763D10702130784FC032604FB832673
:1044700044FBAD67938507F93A85F124AA87A30722
:10448000F4FE35A0930784FC13871700032604FB72
:10449000832644FBAD67938507F93A856D24AA8787
:1044A000A307F4FE8347F4FE8507A307F4FE8347C2
:1044B000F4FEE51793F7F70F2306F4FE0347C4FE57
:1044C0008347B4FBB307F74093F7F70FFD1793F754
:1044D000F70F2307F4FE0347C4FE8347A4FBBA97F4
:1044E00093F7F70F850793F7F70FA306F4FE25A8B8
:1044F0008307D4FE130704FFBA9713070002238C27
:10450000E7FC8307D4FE93F7F70F850793F7F70FC0
:10451000A306F4FE8307E4FE93F7F70F850793F7EE
:10452000F70F2307F4FE8307E4FEE3C307FC01460D
:104530008146032504FB832544FBEF301032AA8714
:1045400063DC07008307E4FE130704FFBA97130731
:10455000D002238CE7FC11A88307E4FE130704FFB5
:10456000BA9713070002238CE7FC8307D4FE1307D6
:1045700004FFBA97238C07FC8357E4FB93F7F70FEC
:104580000357C4FB1377F70F930684FC3686BA856E
:104590003E85EFF03FCB0100B6402644616182804A
:1045A000797122D60018232EA4FC232CB4FCB287E8
:1045B0003687A30BF4FCBA87230BF4FCA30304FE99
:1045C000230304FE834774FDA5CB8327C4FD232664
:1045D000F4FE8327C4FE63D807008327C4FEB30715
:1045E000F0402326F4FE834764FD0327C4FEB3672F
:1045F000F70293F7F70F9387070393F7F70F1397D4
:1046000087016187832784FD2380E700834764FD5A
:104610000327C4FEB347F7022326F4FE834764FE54
:1046200085072303F4FE8327C4FEC9C3832784FDC3
:104630008507232CF4FC45BF8327C4FD2324F4FE07
:10464000834764FD032784FEB377F702A303F4FED8
:10465000034774FEA54763F9E700834774FE938719
:104660007703A303F4FE39A0834774FE93870703FF
:10467000A303F4FE030774FE832784FD2380E70071
:10468000834764FD032784FEB357F7022324F4FE17
:10469000834764FE85072303F4FE832784FE89CBCA
:1046A000832784FD8507232CF4FC59BF010011A04A
:1046B0000100834764FE3E853254456182807971F2
:1046C00022D60018232EA4FC232CB4FC232604FE9F
:1046D00085A0032784FD8327C4FEB307F740FD1799
:1046E0000327C4FDBA9783C70700A305F4FE032779
:1046F000C4FD8327C4FE3E97832684FD8327C4FE22
:10470000B387F640FD178326C4FDB697030707005D
:104710002380E7000327C4FD8327C4FEBA9703471D
:10472000B4FE2380E7008327C4FE85072326F4FE1A
:10473000832784FD85830327C4FEE36CF7F801001B
:10474000325445618280357186DEA2DC0001232669
:10475000A4F82324B4F810C454C418C85CC8232C8B
:104760000401232E1401232604FE93070402A1173B
:10477000232AF4FA09AB832784F883C70700A3012F
:10478000F4FE030734FE930750026315F74C8327AA
:1047900084F885072324F4F8832784F883870700A7
:1047A0009387B7FD130730056369F74C139727000C
:1047B000AD6793870720BA979C438287832744FB82
:1047C00013874700232AE4FA9C432301F4FE83273E
:1047D000C4F8034724FE2380E7008327C4F8850735
:1047E0002326F4F88327C4FE85072326F4FE79A147
:1047F000832744FB13874700232AE4FA9C43232E94
:10480000F4FC8327C4FD130704F9A9460546BA85BD
:104810003E85EFF0FFD8AA87A305F4FE8327C4FDE9
:1048200063D007028347B4FE130704FFBA97130748
:10483000D0022380E7FA8347B4FE8507A305F4FE80
:104840000347B4FE930704F9BA853E85EFF03FE7CE
:104850000347B4FE930704F93A86BE850325C4F8DE
:10486000EF5060328347B4FE0327C4F8BA9723267B
:10487000F4F88347B4FE0327C4FEBA972326F4FE58
:10488000F5AE832744FB9D07E19B13878700232A0E
:10489000E4FA03A847009C432328F4FC232A04FDE0
:1048A000032504FD832544FDEF40E045AA873E87AC
:1048B000930704F9A9460546BE853A85EFF05FCE19
:1048C000AA872305F4FE01468146032504FD8325BE
:1048D00044FDEF308078AA8763D007028347A4FEA7
:1048E000130704FFBA971307D0022380E7FA834720
:1048F000A4FE85072305F4FE0347A4FE930704F9ED
:10490000BA853E85EFF0BFDB0347A4FE930704F9A9
:104910003A86BE850325C4F8EF50E0268347A4FEFF
:104920000327C4F8BA972326F4F88347A4FE032785
:10493000C4FEBA972326F4FE032504FD832544FD17
:10494000EF40603CAA873E85EF406042AA872E88F0
:104950003E86C286032504FD832544FDEF30D04604
:10496000AA872E883E85C285AD6703A687F983A6F0
:10497000C7F9EF30E079AA872E882328F4FC232A90
:1049800004FD01468146032504FD832544FDEF30E7
:10499000405BAA878DC7032504FD832544FDEF40B6
:1049A0008036AA873E87930704F9A9460546BE8547
:1049B0003A85EFF0FFBEAA872305F4FE99A8930776
:1049C0000003A30AF4F8830754F9230AF4F88307D1
:1049D00044F9A309F4F8830734F92309F4F88307A9
:1049E00024F9A308F4F8830714F92308F4F8994785
:1049F0002305F4FE39A88347A4FE130704FFBA97E2
:104A0000130700032380E7FA8347A4FE85072305E5
:104A1000F4FE0347A4FE9547E3FFE7FC8347A4FEAB
:104A2000130704FFBA971307E0022380E7FA8347CE
:104A3000A4FE85072305F4FE0347A4FE930704F9AB
:104A4000BA853E85EFF0BFC70347A4FE930704F97C
:104A50003A86BE850325C4F8EF50E0128347A4FED2
:104A60000327C4FEBA972326F4FE010001AC832776
:104A700044FB13874700232AE4FA9C432326F4FCD3
:104A8000930704F9A9460146BE850325C4FCEFF04F
:104A90003FB1AA87A305F4FC0347B4FC930704F9CC
:104AA000BA853E85EFF0BFC10347B4FC930704F914
:104AB0003A86BE850325C4F8EF50E00C8347B4FC6A
:104AC0000327C4F8BA972326F4F88347B4FC0327D6
:104AD000C4FEBA972326F4FE55A2832744FB13870E
:104AE0004700232AE4FA9C432322F4FC930704F9A9
:104AF000A1460146BE85032544FCEFF07FAAAA87A4
:104B0000A301F4FC034734FC930704F9BA853E85FE
:104B1000EFF0FFBA034734FC930704F93A86BE85E9
:104B20000325C4F8EF502006834734FC0327C4F85C
:104B3000BA972326F4F8834734FC0327C4FEBA97B8
:104B40002326F4FE25AA832744FB13874700232A44
:104B5000E4FA9C43232EF4FA930704F9C146014674
:104B6000BE850325C4FBEFF0BFA3AA87A30DF4FA0B
:104B70000347B4FB930704F9BA853E85EFF03FB4D1
:104B80000347B4FB930704F93A86BE850325C4F8AE
:104B9000EF40707F8347B4FB0327C4F8BA972326FE
:104BA000F4F88347B4FB0327C4FEBA972326F4FE28
:104BB000F1A0832744FB13874700232AE4FA9C4390
:104BC0002322F4FE05A8832744FE038707008327DA
:104BD000C4F82380E7008327C4F885072326F4F868
:104BE0008327C4FE85072326F4FE832744FE85071A
:104BF0002322F4FE832744FE83870700E9F7BDA83C
:104C0000930704F9A1453E85EFF07FAB930704F9C4
:104C10002146BE850325C4F8EF40F0768327C4F80B
:104C2000A1072326F4F88327C4FEA1072326F4FE58
:104C3000B1A08327C4F8130750022380E70083271D
:104C4000C4F885072326F4F88327C4FE85072326A6
:104C5000F4FE2DA0832784F8038707008327C4F878
:104C60002380E7008327C4F885072326F4F88327E9
:104C7000C4FE85072326F4FE11A00100832784F8D3
:104C800085072324F4F8832784F883870700E394B7
:104C900007AE8327C4FE3E85F65066540D618280C0
:104CA000411122C60008AD6793870737DC4383D7DD
:104CB000470013970701418383C77185BE86137729
:104CC000F70F93874185B6972380E70083C77185E7
:104CD000850713F7F70FA38BE18403C77185854719
:104CE000631AF70003C741859307500A6304F7006E
:104CF000A38B018403C771858D476317F700A38BCE
:104D000001840547238CE184010032444101828003
:104D1000411122C60008B707024093874704056780
:104D200013070796D8C3B7070240938747049843F1
:104D3000B7070240938747041367170098C3010021
:104D4000324441018280411122C600080547A38CEC
:104D5000E184B7070240938747049443B7070240B2
:104D60009387470441677917758F98C301003244D0
:104D7000410182805D7186C6A2C48008232EA4FAF8
:104D8000232CB4FA232AC4FA2328D4FA0327C4FB19
:104D9000B7070240A1076301F7060327C4FBB70763
:104DA0000240F107630AF7040327C4FBB707024078
:104DB000938707036302F7040327C4FBB707024086
:104DC00093874704630AF7020327C4FBB70702402F
:104DD000938787056302F7020327C4FBB7070240E6
:104DE0009387C706630AF7000327C4FBB70702408F
:104DF000938707086317F70085450545EFD0EFFC5B
:104E0000A9A80327C4FBB707024093878740630222
:104E1000F7040327C4FBB70702409387C741630A1F
:104E2000F7020327C4FBB7070240938707436302D7
:104E3000F7020327C4FBB707024093874744630A7E
:104E4000F7000327C4FBB707024093878745631623
:104E5000F70085450945EFD04FF70325C4FBEFC0A8
:104E60001FA0832784FB2322F4FC832744FB2324F5
:104E7000F4FC232604FC832704FB2328F4FC232AC8
:104E800004FC93070008232CF4FC232E04FC2320AD
:104E900004FE232204FE8D672324F4FE232604FE51
:104EA000930744FCBE850325C4FBEFC03FBC054609
:104EB00089450325C4FBEFC0FFC985450325C4FB15
:104EC000EFC05FC50100B640264461618280797100
:104ED00006D622D40018232EA4FC232CB4FC85452E
:104EE0000545EFD0EFF28327C4FD81EB854585674B
:104EF00013850780EFD0CFF135A80327C4FD854780
:104F00006317F70085450545EFD0EFF425A003278B
:104F1000C4FD89476317F70085450945EFD0AFF316
:104F200011A80327C4FD8D476316F7008545114579
:104F3000EFD06FF2914601468145032584FDE928B3
:104F4000FD572314F4FE231204FE231504FE23133D
:104F500004FE230604FEAD670327C4FD0A079387FA
:104F60000736BA979C433E87930744FEBE853A8531
:104F7000EFD0CFF2AD670327C4FD0A07938707364A
:104F8000BA979C438146216681453E85EFD0FFF864
:104F9000AD670327C4FD0A0793870736BA979C437A
:104FA000930500073E85EFE0AF87AD670327C4FD9B
:104FB0000A0793870736BA979C4391453E85EFE0F1
:104FC0008FC1AD670327C4FD0A0793870736BA97D9
:104FD0009C43930500083E85EFE04FC5AD6703276E
:104FE000C4FD0A0793870736BA979C4385453E85DB
:104FF000EFD03FE0AD670327C4FD0A07938707366C
:10500000BA979C43054691653E85EFD01FEA0100A3
:10501000B250225445618280797106D622D400189C
:10502000232EA4FC232CB4FCB2872328D4FCA30B8E
:10503000F4FC8327C4FD958393F7F70F9D8BA3079B
:10504000F4FE8327C4FD93F7F70FFD8B2307F4FECF
:105050000327C4FD93070008630DF7148327C4FDDD
:10506000958391E785451145EFD08FDA61A88327B5
:10507000C4FD13D7570085476317F70085452145C1
:10508000EFD00FD941A08327C4FD13D7570089471C
:105090006317F70085454145EFD08FD7A5A083273B
:1050A000C4FD13D757008D476318F70085451305D6
:1050B0000002EFD0EFD5B9A08327C4FD13D7570066
:1050C00091476318F700854513050004EFD04FD4CE
:1050D00015A88327C4FD13D7570095476318F70019
:1050E000854513050008EFD0AFD229A88327C4FD5A
:1050F00013D7570099476317F7008545130500102C
:10510000EFD00FD18347E4FE0547B317F700C2077E
:10511000C1832310F4FE032784FD85476317F7023C
:10512000832704FDC207C183A183C207C18389E726
:105130008D472322F4FE11A8832704FDC207C183F3
:10514000A183C207C1832322F4FE832704FDC20783
:10515000C18393F7F70F2324F4FE0347F4FEAD67F2
:105160000A0793870735BA979C433E87930704FE47
:10517000BE853A85EFC05FCA032784FD8547631B60
:10518000F7020347F4FEAD670A0793870735BA971E
:105190009C43BE868347E4FE0547B317F700C2076A
:1051A000C183034774FD3A86BE853685EFC07FE92B
:1051B00011A00100B250225445618280797122D63B
:1051C0000018232EA4FCAE87A30DF4FC8327C4FD96
:1051D000958393F7F70F9D8BA307F4FE8327C4FDF8
:1051E00093F7F70FFD8B2307F4FE0347B4FD8547C4
:1051F0006312F7028347E4FE0547B316F70003473F
:10520000F4FEAD670A0793870735BA979C43368744
:1052100098CB05A08347E4FE0547B316F700034784
:10522000F4FEAD670A0793870735BA979C43368724
:10523000D8CB0100325445618280797106D622D4E0
:105240000018232EA4FC232CB4FC232AC4FC85457F
:105250000545EFD0EFBB832644FD0146814503257C
:10526000C4FDEFF07FDB8327C4FD958313F7F70FB1
:105270008327C4FD93F7F70FFD8B93F7F70FBE85D8
:105280003A85EFC05FF38327C4FDFD8B0547B31755
:10529000F7002320F4FE232204FE832784FD232429
:1052A000F4FE85472326F4FE930704FE3E85EFC0F7
:1052B0005F980100B250225445618280797106D610
:1052C00022D40018232EA4FCAE873687A30DF4FC4D
:1052D000B287230DF4FCBA87A30CF4FC8327C4FD2A
:1052E00093F7F70F2304F4FE8347B4FDA304F4FE01
:1052F0008347A4FD2305F4FE834794FD2326F4FE93
:10530000930784FE3E85EFC01FFEB7E700E0984399
:10531000FD777D8FB727002083A747765D8FB7275E
:10532000002023A2E776B7E700E0D843B7070010D4
:10533000FD177D8FB727002093874776DC435D8F6D
:10534000B727002093874776D8C3B72700209387D5
:10535000477603C7870085476313F70031200100B4
:10536000B250225445618280411122C60008B7E73D
:1053700000E07D5723A0E718B7E700E07D5723A2A0
:10538000E7180100324441018280411122C6000821
:10539000B7E700E0372700200327477623A0E71070
:1053A000B7E700E03727002013074776584323A2CA
:1053B000E7100100324441018280011106CE22CC67
:1053C0000010B72700209387477605472384E7001E
:1053D000B727002083A7477691EBB7270020938754
:1053E0004776DC4381E7A30704FE21A08547A30796
:1053F000F4FEEFF07FF78347F4FE3E85F24062440F
:1054000005618280011106CE22CC0010AA87A30775
:10541000F4FE8347F4FE89EBB72700209387477695
:1054200023840700EFF07FF60100F240624405613B
:105430008280011106CE22CC00102326A4FE032771
:10544000C4FE930700206307F7240327C4FE9307D5
:10545000002063EAE70A0327C4FE930710106300E5
:10546000F71C0327C4FE9307101063E2E704032729
:10547000C4FE8947630DF7160327C4FE894763EC12
:10548000E7008327C4FE638407140327C4FE85470F
:105490006307F714E5AC0327C4FE8D476301F716D5
:1054A0000327C4FE930700106303F716C5A4032760
:1054B000C4FE93070011630CF7180327C4FE93077B
:1054C000001163EFE7000327C4FE93072010630079
:1054D000F7160327C4FE930730106302F7167DA466
:1054E0000327C4FE930720116304F7180327C4FEA3
:1054F000930720116365F7160327C4FE9307301145
:105500006301F71861A40327C4FE930730216300E9
:10551000F7200327C4FE9307302163EEE704032737
:10552000C4FE930730206300F71A0327C4FE9307D5
:10553000302063EFE7000327C4FE930710206303C6
:10554000F7160327C4FE930720206305F7163DAC2A
:105550000327C4FE930710216309F7180327C4FE2D
:105560009307102163ECE7180327C4FE930700217B
:105570006304F71621AC0327C4FE930700306303CE
:10558000F71C0327C4FE9307003063EFE7000327EF
:10559000C4FE930700226305F7180327C4FE930790
:1055A00010226308F718DDA20327C4FE93072030FA
:1055B000630CF71A0327C4FE93072030636DF718B6
:1055C0000327C4FE930730306309F71AC1A293067C
:1055D0008031014685452145EFF01FA445AA930679
:1055E0008031014685452545EFF01FA345A293066E
:1055F0008031014685452945EFF01FA241AA930657
:105600008031014685452D45EFF01FA141A293064B
:105610008031014685450145EFF01FA085AA93061C
:105620008031014685450545EFF01F9F85A2930611
:105630008031014685450945EFF01F9E81AA9306FA
:105640008031014685450D45EFF01F9D81A29306EF
:105650008031014685453D45EFF01F9C05AA930624
:1056600080310146854513053002EFF0FF9A39AAD3
:1056700093068031014685451305A002EFF0DF99BE
:1056800031A293068031014685451305B002EFF043
:10569000BF98EDA893068031014685451945EFF086
:1056A000BF97EDA093068031014685451D45EFF07B
:1056B000BF96E9A89306803101468545130500028F
:1056C000EFF09F95E1A093068031014685451305D3
:1056D0001002EFF07F945DA8930680310146854566
:1056E00013056004EFF05F9355A0930680310146E7
:1056F000854513057004EFF03F9249A89306803169
:105700000146854513058004EFF01F9141A09306E3
:1057100080310146854513059004EFF0FF8FBDA051
:10572000930680310146854513054002EFF0DF8E78
:10573000B1A8930680310146854513055002EFF06C
:10574000BF8DA9A0930680310146854513056002EF
:10575000EFF09F8C25A893068031014685451305FF
:105760007002EFF07F8B1DA09306803101468545C6
:1057700013058002EFF05F8A11A89306803101467D
:10578000854513059002EFF03F8901000100F240CA
:10579000624405618280397106DE22DC80002326A6
:1057A000A4FC2324B4FC2322C4FC231704FE0325F9
:1057B000C4FCEFF01FC88327C4FCA18381EB85459F
:1057C000856713850780EFC0BFE4A1A08327C4FCD1
:1057D00013D7870085476317F70085450545EFC058
:1057E0009FE705A88327C4FC13D787008947631761
:1057F000F70085450945EFC01FE621A88327C4FCB3
:1058000013D787008D476316F70085451145EFC014
:105810009FE485450545EFC0BFDF8327C4FC13D750
:105820004700C147631AF7008545B707160013857F
:105830000704EFC09F84B9A88327C4FC13D747008F
:10584000C547631AF7008545B70718001385073069
:10585000EFC0BF8281A08327C4FC13D74700930702
:105860001002631AF7008545B7171A00138507C0A1
:10587000EFC0BF8005A08327C4FC13D74700930760
:1058800020026319F7008545B7171A0013850780B2
:10589000EFC0AFFEB7170240DC43C98313F7F70030
:1058A000B7177A00938707203307F702B727F4006A
:1058B000938707403E9723AEE18403A7C1858327E2
:1058C00084FCB357F702C1832317F4FE03A7C185F5
:1058D0008357E4FE8507BE86832784FCB387F602E0
:1058E000B357F7022316F4FE0357C4FE832744FC84
:1058F0003307F702896793870771B357F7022315B8
:10590000F4FE8357C4FEFD17C207C1832312F4FEC1
:105910008357E4FE2310F4FE231304FE231104FE38
:10592000230404FE930700072318F4FC854723197A
:10593000F4FC231A04FC8357A4FE231BF4FC8947C0
:10594000231CF4FC8947231DF4FC231E04FC231FA5
:1059500004FC8327C4FC13D78700AD670A0793872D
:105960000736BA979C433E87930704FEBE853A8567
:10597000EFC0DFD28327C4FC8D8BB9EF8327C4FC33
:1059800013D78700AD670A0793870736BA979C43FA
:105990003E87930704FDBE853A85EFC0DFDF83278E
:1059A000C4FC13D78700AD670A0793870736BA97F9
:1059B0009C43A1453E85EFD00FF98327C4FC13D744
:1059C0008700AD670A0793870736BA979C439145CE
:1059D0003E85EFD01F8C89A28327C4FC13F73700C4
:1059E00085476311F7068327C4FC13D78700AD678B
:1059F0000A0793870736BA979C433E87930704FDAF
:105A0000BE853A85EFC03FF08327C4FC13D78700DB
:105A1000AD670A0793870736BA979C43A1453E8531
:105A2000EFD02FF78327C4FC13D78700AD670A0791
:105A300093870736BA979C43930500403E85EFD085
:105A40001F8AD9A88327C4FC13F73700894763103E
:105A5000F7068327C4FC13D78700AD670A0793872F
:105A60000736BA979C433E87930704FDBE853A8567
:105A7000EFD0CF848327C4FC13D78700AD670A0714
:105A800093870736BA979C43A1453E85EFD00FF622
:105A90008327C4FC13D78700AD670A0793870736AF
:105AA000BA979C4391453E85EFD0DF88B5A0832708
:105AB000C4FC13F737008D476310F7068327C4FC37
:105AC00013D78700AD670A0793870736BA979C43B9
:105AD0003E87930704FDBE853A85EFD02F99832733
